:020000040800F2
:1000000000B200246D0400087D7F0008F57400082C
:10001000B17D0008650D000871B400080000000003
:10002000000000000000000000000000AD03000818
:10003000691400080000000009040008D5890008C0
:100040008704000887040008870400088704000864
:100050008704000887040008870400088704000854
:10006000870400088704000887040008B90F000807
:10007000C50F0008D10F0008DD0F0008E90F0008C8
:10008000F50F00080110000887040008711400082B
:10009000891400087D1400089514000887040008DE
:1000A0008704000887040008870400088704000804
:1000B00087040008870400088704000887040008F4
:1000C00087040008870400088704000887040008E4
:1000D0006D880008E5980008870400088704000878
:1000E0008704000887040008000000008704000857
:1000F0008704000887040008870400080D10000822
:1001000087040008870400088704000887040008A3
:100110008704000819900008718B00088704000804
:10012000191000082510000887040008870400083B
:100130008704000887040008870400088704000873
:1001400000000000000000000000000000000000AF
:100150008704000887040008870400088704000853
:100160008704000887040008870400088704000843
:1001700087040008817F0008870400080000000051
:1001800087040008870400082590000831900008C3
:100190008704000887040008870400088704000813
:1001A0008704000887040008870400080000000096
:1001B00087040008870400088704000887040008F3
:1001C0008704000887040008000000000000000009
:1001D000000000000000000087040008000000008C
:1001E000000000000000000000000000000000000F
:1001F00000000000000000008704000887040008D9
:100200008704000887040008000000008704000835
:100210008704000887040008870400088704000892
:1002200087040008000000008704000800000000A8
:100230008704000887040008000000008704000805
:100240008704000887040008870400088704000862
:100250008704000887040008870400088704000852
:100260008704000887040008870400088704000842
:1002700087040008870400088704000800000000C5
:100280008704000887040008870400088704000822
:100290000000000087040008870400080000000038
:1002A0000000000087040008870400088704000895
:1002B000D99800088704000887040008A1140008E2
:1002C000AD140008598B0008658B000800F002F897
:1002D00000F05CF80AA090E8000C82448344AAF184
:1002E0000107DA4501D100F051F8AFF2090EBAE882
:1002F0000F0013F0010F18BFFB1A43F0010318475A
:1003000024500100445001000A444FF0000C10F842
:10031000013B13F0070408BF10F8014B1D1108BF83
:1003200010F8015B641E05D010F8016B641E01F823
:10033000016BF9D113F0080F1EBF10F8014BAD1C73
:100340000C1B09D16D1E58BF01F801CBFAD505E091
:1003500014F8016B01F8016B6D1EF9D59142D6D3EB
:10036000704700000023002400250026103A28BF13
:1003700078C1FBD8520728BF30C148BF0B60704717
:100380001FB514F099FB1FBD10B510BD00F013FA96
:100390001146FFF7F5FF11F021FA00F031FA03B42E
:1003A000FFF7F2FF03BC00F035FA00002C4B196890
:1003B0000868B0E8F04F80F30988BFF36F8F4FF003
:1003C000000080F3118870470000000008480068B2
:1003D000006880F308884FF0000080F3148862B64C
:1003E00061B6BFF34F8FBFF36F8F00DF00BF00BF59
:1003F00008ED00E0DFF80C00016841F470010160D5
:10040000704700BF88ED00E0EFF30980BFF36F8F06
:10041000134B1A681EF0100F08BF20ED108A20E958
:10042000F04F106009B44FF0500080F31188BFF313
:100430004F8FBFF36F8F14F0C7F84FF0000080F3B9
:10044000118809BC19680868B0E8F04F1EF0100F59
:1004500008BFB0EC108A80F30988BFF36F8F704734
:100460001C000024EFF30580704700000948804716
:1004700009480047FEE7FEE7FEE7FEE7FEE7FEE786
:10048000FEE7FEE7FEE7FEE704480549054A064B9E
:1004900070470000998A0008CD02000800A80024D7
:1004A00000B2002400AA002400AA002453EA020C8F
:1004B00000F069802DE9F04B4FF00006002B1FBFC4
:1004C000B3FA83F503FA05F424FA05F65E4012BF89
:1004D0001643B2FA82F502FA05F4C5F120051EBFF3
:1004E00022FA05FC44EA0C04203556EA044C4FEA93
:1004F000144418BF641C4FF000084FF000099042EC
:1005000071EB030C39D3002919BFB1FA81F701FA55
:1005100007F6B0FA80F700FA07F6C7F120071EBF0A
:1005200020FA07FC46EA0C062037B6FBF4FCA7EBE2
:100530000507103F07F01F0BCBF120060CFA0BFB51
:100540002CFA06F644BFB3460026202FA4BF5E4611
:100550004FF0000B5BEA060C08BF4FF0010B19EBE4
:100560000B09ABFB027C48EB0608C01B06FB02CC68
:100570000BFB03CC71EB0C01C1E70B460246414675
:100580004846BDE8F08B13B54FF000004FF0000176
:10059000AFF30080BDE81C407047B2F120030AD5DC
:1005A000C2F1200320FA02F001FA03F321FA02F16A
:1005B00040EA0300704721FA03F04FF00001704752
:1005C00010B54C1084EA530404D54042C1F1000137
:1005D00038BF491E1B4204D55242C3F1000338BF45
:1005E0005B1EFFF763FF14F0804F04D04042C1F15F
:1005F000000138BF491E14F0004F04D05242C3F12D
:10060000000338BF5B1E10BD032A40F2308010F09B
:10061000030C00F0158011F8013BBCF1020F62449D
:1006200098BF11F801CB00F8013B38BF11F8013B2E
:10063000A2F1040298BF00F801CB38BF00F8013BDB
:1006400011F0030300F02580083AC0F0088051F84B
:10065000043B083A51F804CBA0E80810F5E7121D56
:100660005CBF51F8043B40F8043BAFF30080D20775
:1006700024BF11F8013B11F801CB48BF11F8012B41
:1006800024BF00F8013B00F801CB48BF00F8012B64
:10069000704710B5203AC0F00B80B1E81850203AEE
:1006A000A0E81850B1E81850A0E81850BFF4F5AF12
:1006B0005FEA027C24BFB1E81850A0E8185044BF9C
:1006C00018C918C0BDE810405FEA827C24BF51F809
:1006D000043B40F8043B08BF7047D20728BF31F8FD
:1006E000023B48BF11F8012B28BF20F8023B48BF4E
:1006F00000F8012B70474FF000020429C0F012806F
:1007000010F0030C00F01B80CCF1040CBCF1020FC4
:1007100018BF00F8012BA8BF20F8022BA1EB0C0199
:1007200000F00DB85FEAC17C24BF00F8012B00F88F
:10073000012B48BF00F8012B70474FF0000200B5B5
:10074000134694469646203922BFA0E80C50A0E8F4
:100750000C50B1F12001BFF4F7AF090728BFA0E8A2
:100760000C5048BF0CC05DF804EB890028BF40F86E
:10077000042B08BF704748BF20F8022B11F0804FB0
:1007800018BF00F8012B704770477047704710B5CD
:1007900000F00CF8006810BD10B5044600F006F833
:1007A000046010BD00487047A0A7002400487047AF
:1007B000A0A7002470477546FFF7F4FFAE4605007A
:1007C0006946534620F00700854618B020B5FFF76C
:1007D0005BFEBDE820404FF000064FF000074FF0F1
:1007E00000084FF0000B21F00701AC46ACE8C0094F
:1007F000ACE8C009ACE8C009ACE8C0098D46704758
:1008000010B50446AFF300802046BDE81040FFF766
:10081000C6BD000001491820ABBEFEE7260002005D
:10082000010010B50BD000F00FFAB0EE600A0846D8
:1008300000F00FFABDE81040084600F065B99FEDE2
:10084000010A10BD0000000010B190ED100A7047C1
:100850009FED010A704700000000000010B190ED0C
:10086000120A70479FED010A704700000000000067
:1008700010B190ED110A70479FED010A704700001A
:100880000000000070B504000D464FF0FF362DED5E
:10089000028B20D008001ED090ED000A7600B5EE45
:1008A000C00AF1EE10FA16D990ED020AB5EEC00AB0
:1008B000F1EE10FA0FD9D0ED060A90ED050AF4EE2C
:1008C000C00AF1EE10FA06D90BF09AFEB5EEC00A96
:1008D000F1EE10FA03D83046BDEC028B70BD95EDF9
:1008E000038AB5EEC08AF1EE10FA01DCB1EE008A9F
:1008F00095ED000A284684ED000A0BF081FE84ED98
:10090000010AD5ED021A9FED300AC4ED021A84EDFA
:10091000048AD5ED020A20EE881A84ED031AD5ED7B
:10092000040AC0FE800AC4ED050AD5ED050AC4ED2F
:10093000060AD5ED060AC4ED070AD5ED070AC0FE82
:10094000800AC4ED080AD5ED080AF5EEC00AF1EEFA
:1009500010FA01DCF7EE000AC4ED090AD5ED090A28
:100960004FF07E51F5EEC00AF1EE10FA03DD10EE05
:10097000900A884201DBF6EE000AC4ED0A0AD5EDC2
:100980000A0AF5EEC00AF1EE10FA03DD10EE900A45
:10099000884201DBF5EE000AF0EE002AC4ED0C1AE5
:1009A000C4ED0B0A61EE220A21EE012A0020C4EDFB
:1009B0000D0A84ED0E2A84ED0F0A84ED100A84EDF1
:1009C000110A84ED120A87E7000000009FED021A69
:1009D000F0EE411A00F002B80000000010B504006B
:1009E000B0EE412A0FD084ED0F0AC4ED101AC4ED09
:1009F000110A94ED071AD4ED060AB0EE420A0BF084
:100A000089FD84ED120A10BD10B5040013D0D4ED99
:100A1000051AF5EEC01AF1EE10FA0FDD94ED111A79
:100A200094ED002A30EE410A21EE800A00EE021A0F
:100A300084ED111A04E09FED330A10BD84ED110A14
:100A400094ED0F1AD4ED101AD4ED0D3A31EE600A80
:100A500094ED123A43EEC01A94EC022A42EE831A45
:100A600002EE211A84ED0F1A94ED091AD4ED0B0A47
:100A70000BF060FD94ED0E2AB0EE401AD4ED100A92
:100A8000B1EE422AD4ED001A21EE021A94ED110AB9
:100A9000D4ED0F2A41EE810A30EE620AC4ED100A4D
:100AA00094ED091AD4ED0A0A0BF044FDD4ED0C0ABA
:100AB000D4ED101A94ED011A20EE200AD4ED080AA4
:100AC00070EE611AF5EEC00AF1EE10FA81EE810ABD
:100AD0000FDD94ED121AD4ED001A30EE410A20EE2B
:100AE000A11A60EEE10A0BF015FDD4ED120A30EE0A
:100AF000800A94ED071AD4ED060A0BF00BFD84ED85
:100B0000120A10BD0000000010B5040017D094EDCB
:100B1000210A84ED220AD4ED200A94ED1F0AFFF782
:100B200073FFD4ED220A84ED210A204630EE600ADC
:100B300084ED230A0BF084FD94ED210A10BD9FED96
:100B4000010A10BD0000000010B504002DED048B5B
:100B5000B0EE418AF0EE608AB0EE409A1ED094ED7D
:100B6000010AB0EE481AF0EE680A60EE481AB0EEDC
:100B7000490AFFF733FFC4ED1F8A84ED209A9FEDE9
:100B8000090A84ED218A84ED228A84ED230A204615
:100B9000BDEC048BBDE810400BF052BDBDEC048BE6
:100BA00010BD00000000000070B504001ED0E9B1C7
:100BB00004F14C0005460BF0EBFC002815D129464A
:100BC0002046FFF75FFE00280FD19FED0A0A84ED53
:100BD0001F0A84ED200A84ED210A84ED220A84EDA7
:100BE000230A84ED240A84ED250A70BD4FF0FF30FE
:100BF00070BD00000000000010B504002DED028B58
:100C0000F0EE608AB0EE408A18D0F0EE680AB0EEDE
:100C1000480AFFF7DBFE9FED0B1AC4ED1F8A84ED37
:100C2000208A84ED211A84ED221A84ED231A2046AD
:100C3000BDEC028BBDE810400BF002BDBDEC028B99
:100C400010BD000000000000002801D080ED200A47
:100C50007047002801D080ED1F0A7047034800212B
:100C600001728180C18000F013B80000585C00243C
:100C700070B5064C0546207A08B100F009F82560E9
:100C80000020A0800121E080217270BD585C00240A
:100C90000548042110B505F0D3FD04480021017278
:100CA0008180C18010BD000054170024585C0024CE
:100CB00070B5284C207A00281ED020680025052811
:100CC00019D2DFE800F00305080B0E0022480AE005
:100CD0002148143007E02048203004E01E48383016
:100CE00001E01D484C3030B1A18800EB8100006864
:100CF000060C02D004E0257270BD0104090C06D078
:100D0000E188491C89B2E180012904D015E0BDE8E1
:100D10007040FFF7BDBF00041049000C15D0B1FBB7
:100D2000F0F10F4A1368481ED8624908D060106875
:100D300081630421104605F0FDFCE088B042DBD35E
:100D4000A088401CA080E58070BD0548042105F006
:100D500077FDF2E7585C0024F04B010840420F0099
:100D600054170024FEE700007CB5040A160A8DF82B
:100D700000400D0A8DF804601C0A8DF801008DF802
:100D800005206A468DF802508DF8064005488DF81A
:100D9000031040F2FF118DF8073008230BF06AFEB4
:100DA0007CBD0000D01200242DE9F047F0EE413A5E
:100DB000F0EE602AB0EE613A9FED291ADFED290AC4
:100DC0000D46824610200EF056FAB3EE0E1AFBEED8
:100DD0000E0AB0EE620A04460C200EF04CFADFED6B
:100DE000232A9FED211AB0EE630AF0EE620A034651
:100DF0000C200EF040FAB1EE041AF0EE620AB0EEEA
:100E0000430A02460C200EF036FAB2EE041AFAEE4D
:100E1000040AB0EE420A06460C200EF02CFA0746F1
:100E200018011B0931094FEA061C114E4FEA14291B
:100E300040EA122850464CEA172C86F8009074704D
:100E4000B370082386F803803271324671712946E7
:100E500086F806C0F771BDE8F0470BF00BBE000046
:100E6000DA0F4941DA0F49C10000FA4300000000DF
:100E7000400200240020704710B5EFF3108072B6D6
:100E80000022054901234A808A800B7000B962B6AE
:100E900013F0E4F9002010BDEA02002410B5EFF3CE
:100EA000108072B600220A4901234A808A800B70A2
:100EB00000B962B613F0D2F906490022064808F0DC
:100EC0000BFF0649044808F0FAFE002010BD0000A0
:100ED000EA02002498900024BC830024988800240F
:100EE00010B5044619B1096809B113F049F904486D
:100EF000214608F0E4FE024808F0BAFE002010BDCA
:100F0000BC83002470B572B60C4CA08880B1A58853
:100F100013F0D6F9C0F50060A84200DA0546A8B281
:100F20004FF40071884200D90846A188081AA080B1
:100F300062B612F071FC002070BD0000EA020024CD
:100F40000A460C4910B591F89C32032B07D1D1F811
:100F5000BC1221B1D1F8141219B1012010BD032027
:100F600010BD0146034808F0B7FEBDE81040014837
:100F700008F028BFBC8300240E4A5FF0000130B5A2
:100F800001EBC10400EB810302EB840402EB810559
:100F9000491CA4690429B4F9024000EE104AB8EED5
:100FA000C00A83ED080A95ED360A83ED0C0AE7D3F3
:100FB00030BD0000AC5F0024014800F09BBE000083
:100FC000EC150024014800F095BE000068160024CE
:100FD000014800F08FBE0000101C0024014800F002
:100FE00089BE0000841D0024014800F083BE00007B
:100FF000181B0024014800F07DBE0000001E0024E4
:10100000014800F077BE00007C1E0024014800F07B
:1010100071BE00008C1C0024014800F06BBE000073
:10102000941B0024014800F065BE0000081D002448
:10103000294A016891423AD0274A1832914236D063
:10104000254A3032914232D0234A483291422ED042
:10105000214A603291422AD01F4A7832914226D0EA
:101060001D4A9032914222D01B4AA83291421ED092
:101070001A4A91421BD0194A1832914217D0174A86
:101080003032914213D0154A483291420FD0134A60
:10109000603291420BD0114A7832914207D00F4A08
:1010A0009032914203D00D4AA832914211D1CAB276
:1010B0001823103AB2FBF3F26FF30901032A02F08E
:1010C0000703074AD25C026600D9091DC1650846BC
:1010D000704721F0FF01F9E71000024010040240C0
:1010E000544B010830B5224A012301689142CAB22B
:1010F0001BD01F4C1434A14217D01D4C2834A142E0
:1011000013D01B4C3C34A1420FD0194C5034A14297
:101110000BD0174C6434A14207D0154C7834A1424F
:1011200003D0134C8C34A1420CD11421114C083A39
:10113000B2FBF1F10F4A803201F01F0504EB81018F
:10114000AB4010E00C4D1824103A0D44B2FBF4F102
:10115000A82D00D80831094A01F01F0402EB8101D3
:10116000064AA3408032643080E80E0030BD0000A3
:101170000854025800580258F0FBFDBF0008024016
:1011800010B50279531E072B2DD8174C0168A142C8
:101190001BD0154C1434A14217D0134C2834A14253
:1011A00013D0114C3C34A1420FD00F4C5034A1420B
:1011B0000BD00D4C6434A14207D00B4C7834A142C3
:1011C00003D0094C8C34A14203D10849074C443167
:1011D00002E00749064C443104EB8202C0E91C21BD
:1011E00001219940816710BD08540258FC580258EB
:1011F000FC08024010B583694FF0C074826A014652
:10120000002053B1B3F5005F15D072B1012A0CD0A4
:10121000022A0AD0032A09D104E01AB1012A06D011
:10122000022A03D1C96AC90100D5012010BDC96ACB
:10123000A142FAD010BD002AF7D0012AF2D0022A2A
:10124000F3D0032AF3D010BD2DE9F04F804E804F2C
:10125000DFF8FC911836DFF8F8A148370468C56D4F
:101260000AF1300ADFF8ECB14C45DFF8ECC1DFF8E9
:10127000ECE16DD0B4426BD0544569D0BC4267D02C
:10128000DFF8D081A8F11808444561D05C455FD0F3
:1012900064455DD074455BD0DFF8C481444557D0C8
:1012A000DFF8BC8108F11808444551D0DFF8B0815F
:1012B00008F1300844454BD0DFF8A48108F1480814
:1012C000444545D0DFF8988108F1600844453FD097
:1012D000DFF88C8108F17808444539D0DFF8808147
:1012E00008F19008444533D0DFF8748108F1A8086C
:1012F00044452DD0DFF86C81444529D0DFF8648166
:1013000008F11408444523D0DFF8588108F1280873
:1013100044451DD0DFF84C8108F13C08444517D006
:10132000DFF8408108F15008444511D0DFF83481DE
:1013300008F1640844450BD0DFF8288108F17808EB
:10134000444505D0DFF81C8108F18C08444509D1DB
:10135000D0E91A48C4F80480046F1CB1D0E91D48D4
:10136000C4F8048004684C452ED0B4422CD05445B7
:101370002AD0BC4228D0374E183EB44224D05C4517
:1013800022D0644520D074451ED0354EB4421BD0C7
:10139000334E1836B44217D0314E3036B44213D0E3
:1013A0002F4E4836B4420FD02D4E6036B4420BD08B
:1013B0002B4E7836B44207D0294E9036B44203D033
:1013C000274EA836B44215D190F860603F2406F04D
:1013D0001F06B440AC600468256825F480252560AC
:1013E0002EE09A600068C160BDE8F08F99600068E7
:1013F000C260F9E71B4EB4421BD01A4E1436B442F9
:1014000017D0184E2836B44213D0164E3C36B4428C
:101410000FD0144E5036B4420BD0124E6436B44244
:1014200007D0104E7836B44203D00E4E8C36B442FC
:10143000DAD190F86060012406F01F06B4406C60B9
:10144000046863608368402B0368CFD1C9E700005C
:101450001000024088000240A0000240B800024094
:101460001004024008540258704772B6FEE70000AC
:10147000014801F0D1BC0000D0120024014801F065
:10148000CBBC0000D0120024014801F0C5BC000014
:101490007C130024014801F0BFBC00007C13002431
:1014A000014801F0B9BC000028140024014801F0F3
:1014B000B3BC000028140024F0B503684FF6FC719B
:1014C0006F4CC26BD3F884508D4345EA8205C3F854
:1014D0008450036853F8845FB0F8406025F47F05BA
:1014E00045EA06451D60036C664D9F180268D2F8F8
:1014F00088308B4343EA8703C2F88830026852F889
:10150000883FB0F8446023F4FE0343EA06431360C7
:10151000066856F8A03F426C8B4307EB420243EA51
:1015200082033360076857F8A03FB0F8486023F49F
:10153000FE0343EA06433B60D0E9123603FB062272
:101540000368D3F8B0608E4346EA8206C3F8B06001
:101550000368B0F85060D3F8B07027F4FE0747EA8C
:101560000646C3F8B060D0E91467036806FB07229B
:10157000D3F8AC608E4346EA8206C3F8AC60D0E98B
:101580001667036806FB0722D3F8F0608E4346EA2D
:101590008206C3F8F0600368B0F86060D3F8F070BA
:1015A00027F47C1747EA0646C3F8F0600368076E25
:1015B00053F8C06F02EB47028E4346EA820119607E
:1015C0000168B0F86420D1F8C03023F47C1343EAFA
:1015D0000242C1F8C020016890F86820D1F8C030FC
:1015E00023F07C5343EA0262C1F8C020C16B04EBD4
:1015F00081014167026C01EB82028267436C02EB5E
:10160000C302C267D0E91234634302EB8302C0F81D
:101610008020D0E91434634302EB8302C0F88420B5
:10162000D0E91634634302EB8302C0F88820036ECE
:1016300002EBC303C0F88C30446E026F544303EBDB
:101640008403C0F89030846E544303EB8402C0F8E6
:101650009820AA420AD9D0F8A820032142F02002FB
:10166000C0F8A820C0F8A0100120F0BD002200E0C2
:1016700004C1D0F898308B42FAD80020F0BD0000A9
:1016800000AC0040FCD30040F0B58E680C69D1E995
:10169000005744EA0604DFB145F080452C43066F4D
:1016A000D1E906C54F695E4391F8203045EA0C0543
:1016B000B1F80CC0D0F88CE0002047EA03630C4F6F
:1016C0001D430EEB860345EA0C45E3E802450AE0BC
:1016D00044EA8544E3E71418155C001DD4F8014082
:1016E00045EA042410C3CC683C5D8442F3D8F0BDC5
:1016F0005C4B010800B587B006491C226846FEF71E
:10170000C8FF0021684610F035FB0349086007B0A8
:1017100000BD0000544C0108980000242DE9F84F4A
:10172000044602F035F8009034B1A06B022806D0D0
:101730008021A1650020E4E00120BDE8F88FC64DBE
:10174000C54EC549183520683036DFF81083DFF8FC
:1017500010938842DFF80CA3DFF80CB32ED0A84218
:101760002CD0B0422AD0404528D0484526D05045FC
:1017700024D0584522D0BC4A183290421ED0BB4AD1
:1017800090421BD0B94A1832904217D0B74A303233
:10179000904213D0B54A483290420FD0B34A6032DB
:1017A00090420BD0B14A7832904207D0AF4A903283
:1017B000904203D0AD4AA832904209D1026822F08B
:1017C0001E0202602068426922F08002426103E04A
:1017D000026822F00E02026027688F4238464DD020
:1017E000A8424BD0B04249D0404547D0484545D0AB
:1017F000504543D0584541D09B4A183290423DD085
:101800009A4A90423AD0994A1832904236D0974A32
:101810003032904232D0954A483290422ED0934A8C
:10182000603290422AD0914A7832904226D08F4A34
:101830009032904222D08D4AA83290421ED08C4ADB
:1018400090421BD08A4A1432904217D0884A2832DC
:10185000904213D0864A3C3290420FD0844A503294
:1018600090420BD0824A6432904207D0804A78324C
:10187000904203D07E4A8C32974204D1606E026857
:1018800022F48072026074492068884228D0A842FD
:1018900026D0B04224D0404522D0484520D05045E3
:1018A0001ED058451CD070491831884218D06F4955
:1018B000884215D06D491831884211D06B493031BA
:1018C00088420DD069494831884209D06749603162
:1018D000884205D065497831884201D0634990310A
:1018E000016821F0010101600DE000BF01F050FF2F
:1018F0000099401A052806D92022A265032100205C
:10190000A163606318E73868C007EFD1524A01212C
:10191000206890422ED0A8422CD0B0422AD0404518
:1019200028D0484526D0504524D0584522D04E4B8B
:10193000183398421ED04D4B98421BD04B4B183356
:10194000984217D0494B3033984213D0474B483315
:1019500098420FD0454B603398420BD0434B7833BD
:10196000984207D0414B9033984203D03F4BA83365
:10197000984208D194F860703F23E06D07F01F078C
:10198000BB40836007E094F86030E06D03F01F0314
:1019900001FA03F34360206890424DD0A8424BD037
:1019A000B04249D0404547D0484545D0504543D046
:1019B000584541D02C4A183290423DD02B4A904293
:1019C0003AD02A4A1832904236D0284A30329042D1
:1019D00032D0264A483290422ED0244A6032904279
:1019E0002AD0224A7832904226D0204A9032904221
:1019F00022D01E4AA83290421ED01D4A90421BD0CF
:101A00001B4A1432904217D0194A2832904213D000
:101A1000174A3C3290420FD0154A503290420BD0B8
:101A2000134A6432904207D0114A7832904203D070
:101A30000F4A8C3290420BD1D4E91A024260206FD7
:101A400030B1026822F480720260D4E91D02426063
:101A50000020A163606370E610000240580002405D
:101A60007000024088000240A000024010040240C2
:101A7000085402582DE9F05F20B1816B022904D08F
:101A8000802181650120BDE8F09F904C8F4B01685B
:101A9000183C18338D4ADFF83C92A1428C4CDFF899
:101AA00038E28E4FDFF838B2DFF838A28E4D8F4E15
:101AB00031D091422FD099422DD0A1422BD049450F
:101AC00029D0714527D0B94225D0DFF810C20CF1DA
:101AD000180C61451FD0DFF808C2ACF1600C6145FD
:101AE00019D0DFF8FCC1ACF1480C614513D0DFF828
:101AF000F0C1ACF1300C61450DD0DFF8E4C1ACF1C0
:101B0000180C614507D0594505D0514503D0A9426D
:101B100001D0B1422CD1DFF8B4C14FF00408C0F8B5
:101B20003880ACF1180C61451DD091421BD0994210
:101B300019D0A14217D0494515D0714513D0B942EB
:101B400011D06648183081420DD065486038814216
:101B500009D063484838814205D061483038814215
:101B600001D05F481838086820F001000860AAE03A
:101B7000D1F800C02CF00E08DFF850C1C1F8008089
:101B8000ACF1180C0168614527D0914225D09942EB
:101B900023D0A14221D049451FD071451DD0B94263
:101BA0001BD0DFF838C10CF1180C614515D0DFF8F7
:101BB00030C1ACF1600C61450FD0DFF824C1ACF14D
:101BC000480C614509D0DFF818C1ACF1300C614513
:101BD00003D0DFF80CC1ACF1180CD1F800C02CF028
:101BE000010CC1F800C0DFF8E4804FF0010C01687F
:101BF000A8F11808414546D0914244D0994242D0BC
:101C0000A14240D049453ED071453CD0B9423AD07E
:101C1000324A1832914236D0314A603A914232D03B
:101C20002F4A483A91422ED02D4A303A91422AD03A
:101C30002B4A183A914226D0594524D0514522D0FA
:101C4000A94220D0B1421ED0294A91421BD0284A35
:101C50001432914217D0264A2832914213D0244A96
:101C60003C3291420FD0224A503291420BD0204A4E
:101C70006432914207D01E4A7832914203D01C4A06
:101C80008C32914218D1416E0A6822F480720A6047
:101C900090F86020C16D02F01F020CFA02F24A6057
:101CA000D0E91A124A60016F31B10A6822F48072D9
:101CB0000A60D0E91D124A600022416DC0F838C0A8
:101CC000426301B188470020DDE6000028000240A1
:101CD000580002407000024088000240A00002400C
:101CE0007004024088040240A0040240B80402408C
:101CF000085402582DE9FC5F0446FE4E0020DFF830
:101D0000F48300904FF41652FB4808F11808E56D73
:101D1000DFF8E093DFF8DCA3016809F130092068FF
:101D20000AF1480AB1FBF2F1B04201912F68D5F8EF
:101D300000C0DFF8C8B335D04146884232D04845AC
:101D400030D050452ED058452CD0EC49183188421F
:101D500028D0EA493031884224D0E84948318842C5
:101D600020D0E74988421DD0E5491831884219D072
:101D7000E3493031884215D0E1494831884211D0D9
:101D8000DFF87CE30EF1600E70450BD0DC4A783250
:101D9000904207D0DA4B9033984203D0D849A8310B
:101DA00088427DD194F86020082102F01F0201FAD8
:101DB00002F23A424AD0B04232D0404530D0484593
:101DC0002ED050452CD058452AD0CC4A18329042BB
:101DD00026D0CA4A3032904222D0C84A4832904275
:101DE0001ED0C74A90421BD0C54A1832904217D025
:101DF000C34A3032904213D0C14A483290420FD089
:101E0000BF4A603290420BD0BD4A7832904207D030
:101E1000BB4A9032904203D0B94AA832904203D1D3
:101E2000026802F0040202E0026802F008026AB1ED
:101E3000026822F00402026094F8600000F01F00C3
:101E40008140A960A06D40F00100A06594F8600099
:101E5000012100F01F008140394240D02068B0428B
:101E600034D0404532D0484530D050452ED058452A
:101E70002CD0A24A1832904228D0A04A3032904248
:101E800024D09E4A4832904220D09D4A90421DD094
:101E90009B4A1832904219D0994A3032904200E061
:101EA000A7E113D0964A483290420FD0944A60324C
:101EB00090420BD0924A7832904207D0904A9032AA
:101EC000904203D08E4AA83290427DD1406910F0F2
:101ED000800F04D0A960A06D40F00200A06594F8C6
:101EE0006000042100F01F00814039423ED020688C
:101EF000B04232D0404530D048452ED050452CD04D
:101F000058452AD07D4A1832904226D07B4A30323A
:101F1000904222D0794A483290421ED0784A90426C
:101F20001BD0774A1832904217D0754A303290420F
:101F300013D0734A483290420FD0714A60329042B7
:101F40000BD06F4A7832904207D06D4A903290425F
:101F500003D06B4AA83290424ED1006810F0020FB5
:101F600004D0A960A06D40F00400A06594F8600062
:101F7000102100F01F008140394258D02068B04243
:101F800034D0404532D0484530D050452ED0584509
:101F90002CD05A4A1832904228D0584A30329042B7
:101FA00024D0564A4832904220D0554A90421DD003
:101FB000534A1832904219D0514A3032904215D0CB
:101FC0004F4A4832904200E014E00FD04C4A603251
:101FD00090420BD04A4A7832904207D0484A903219
:101FE000904203D0464AA832904207D1006800F0E0
:101FF000080006E0006872E70068B7E7006800F0D4
:102000000400A0B1A96020680168490304D50068F4
:10201000000308D5E16C07E00168C90503D4016835
:1020200021F008010160616C09B12046884794F8ED
:102030006000202100F01F008140394276D02068E6
:10204000B04232D0404530D048452ED050452CD0FB
:1020500058452AD0294A1832904226D0274A303291
:10206000904222D0254A483290421ED0244A9042C3
:102070001BD0234A1832904217D0214A3032904266
:1020800013D01F4A483290420FD01D4A603290420E
:102090000BD01B4A7832904207D0194A90329042B6
:1020A00003D0174AA832904203D1006800F0100014
:1020B00002E0006800F00200D8B1A960A06B04281B
:1020C0002068016806D049037BD50068000329D445
:1020D000A16C28E021F0160101602068416921F01F
:1020E00080014161606C08B9E06C70B120680168E2
:1020F00008E01BE0100002401400002470000240C1
:102100001004024021F00801016094F860303F2182
:10211000012003F01F0300229940A960A0636263BD
:10212000616D5FE0216C09B120468847A06D0028F1
:102130007ED0A06DC00754D020680421A163B042B6
:102140002BD0404529D0484527D0504525D058456B
:1021500023D09949884220D09749183188421CD011
:1021600095493031884218D09449884215D0934916
:102170001831884211D09149303188420DD08F49B1
:102180004831884209D08D496031884205D08B4959
:102190007831884201D089499031016821F00101EC
:1021A000016020680099019A491C0091914202D86F
:1021B0000168C907F6D10068C0070ED003200DE002
:1021C000FFE70168C905ADD403680121002223F0AF
:1021D00010030360A1636263A4E70120A0630020F1
:1021E0006063216D002923D002B02046BDE8F05F76
:1021F0000847734988421DD071491431884219D06B
:102200006F492831884215D06D493C31884211D040
:102210006B49503188420DD069496431884209D0F8
:1022200067497831884205D065498C31884200E0A1
:102230007EE07DD194F860800427016808F01F08D3
:1022400007FA08F717EA0C0F009746D04F0744D556
:1022500000980F04686003D5C8033CD4E16CC1E763
:10226000880638D42068B0422DD05349603988425E
:1022700029D0484527D0504525D0584523D04E4930
:10228000884220D04C49183188421CD04A4930310C
:10229000884218D04949884215D0484918318842A7
:1022A00011D04649303188420DD0444948318842E6
:1022B00009D0704507D0904205D0984203D03F49DD
:1022C000A831884203D1016821F0080102E00168C9
:1022D00021F004010160616C84E7022707FA08F726
:1022E00017EA0C0F00974CD08F074AD500980F04BF
:1022F000686003D5C80342D4A16C73E788063ED456
:102300002068B0422FD02C49603988422BD04845F4
:1023100029D0504527D0584525D02749884222D07A
:102320002549183188421ED023493031884200E0C7
:1023300040E018D02149884215D020491831884200
:1023400011D01E49303188420DD01C494831884295
:1023500009D0704507D0904205D0984203D0174964
:10236000A831884203D1016821F0140102E001681C
:1023700021F00A0101600121A16300206063216C4A
:1023800030E7082202FA08F212EA0C0F12D009070D
:1023900010D5016821F00E01016094F86010012051
:1023A000002201F01F0100FA01F16960A065A0633D
:1023B000626316E7BDE8FC9F8800024010040240FB
:1023C000085402582DE9F05F044601F0E1F9002CB1
:1023D00007467BD0DE4E022120684FF00308DFF86D
:1023E00074934FF00005DFF870A3B042DFF86CB3D0
:1023F00034D0D74A1832904230D048452ED050457C
:102400002CD058452AD0D54A1832904226D0D34AEB
:102410003032904222D0D14A483290421ED0D04A27
:1024200090421BD0CE4A1832904217D0CC4A30325C
:10243000904213D0CA4A483290420FD0C84A603204
:1024400090420BD0C64A7832904207D0C44A9032AC
:10245000904203D0C24AA83290427CD1A163B042DC
:1024600065632ED0BA49183188422AD0484528D011
:10247000504526D0584524D0B8491831884220D03C
:10248000B649303188421CD0B4494831884218D00E
:10249000B349884215D0B2491831884211D0B049A9
:1024A000303188420DD0AE494831884209D0AC491C
:1024B0006031884205D0AA497831884201D0A849C4
:1024C0009031016821F00101016008E021E100BFC5
:1024D00001F05EF9C01B052801D9202116E1206812
:1024E0000068C007F4D1D4E902032168103418430E
:1024F0008E4694E88410D4E9033809683A431043BF
:10250000984A40EA0C00676918431140103C40EAC1
:102510000800042F40EA010003D1D4E90B12114353
:1025200008436168A1F12902052A0BD9163A032A4A
:1025300008D9083A012A05D9083A032A02D9743978
:10254000032901D840F48010CEF800002068676AA3
:102550004069042F00E01EE020F0070047EA000772
:102560000CD1D4E90A01074341B12046FEF742FEEF
:1025700020B14020A0650121A163CAE02068476125
:102580002046FEF755FD94F860203F2102F01F021F
:102590009140816052E0744A90421BD0724B1433D8
:1025A000984217D0704B2833984213D06E4B3C336F
:1025B00098420FD06C4B503398420BD06A4B643327
:1025C000984207D0684B7833984203D0664B8C33DF
:1025D00098427DD1A1636563644B0168A26801EAFA
:1025E000030E402A75D0802A74D00022D4E90378E3
:1025F000D4E9053142EAD70242EAD8085A4AD4E976
:10260000077C48EAD30848EAD10141EAD70152429F
:1026100041EA1C11142341EA0E01016020681044B4
:10262000B0FBF3F0800020662046FEF701FD94F831
:102630006020012102F01F02914041602068B042F9
:1026400057D043491831884253D0484551D050455E
:102650004FD058454DD041491831884249D03F4963
:102660003031884245D03D494831884241D03C49CB
:1026700088423ED03A49183188423AD03849303100
:10268000884236D036494831884232D034496031A8
:1026900088422ED03249783188422AD03049903150
:1026A000884226D02E49A831884222D02E4988421D
:1026B0001FD02D49143188421BD02B492831884224
:1026C00017D029493C31884213D02749503102E0C4
:1026D0001BE015E016E088420BD0234964318842A4
:1026E00007D021497831884203D01F498C31884274
:1026F00029D12046FEF7F6FCA06880280CD00CE01B
:10270000102273E74FF4804270E74021A165C4F8BE
:1027100038800120BDE8F09F6560616E2079086017
:10272000D4E91A0141606068401E072808D8204695
:10273000FEF726FD206F0560D4E91D01416002E02F
:1027400025676567A5670120A565A0630020E1E70F
:102750001000024040000240580002407000024059
:10276000100402403F8010FE085402580F00FEFF84
:102770002DE9F84F04008C464FF00000009010D077
:10278000606B01280FD0A56B012000216063012D33
:102790000BD0C002A0650120009061630098BDE8E5
:1027A000F88F0120FBE70220F9E78C4D0226206814
:1027B000A663A8428A4DA1658A4E8B4FDFF82C8212
:1027C000DFF82C92DFF82CA2DFF82CB226D0A8423A
:1027D00024D0B04222D0B84220D040451ED0484537
:1027E0001CD050451AD0584518D08449884215D07D
:1027F00082491831884211D08049303188420DD049
:102800007E494831884209D07C496031884205D0F0
:102810007A497831884201D078499031016821F0B5
:102820000101016061462046FEF70EFD6B492068FC
:1028300088422CD0A8422AD0B04228D0B84226D014
:10284000404524D0484522D0504520D058451ED080
:102850006A4A90421BD0694A1832904217D0674AA0
:102860003032904213D0654A483290420FD0634ACA
:10287000603290420BD0614A7832904207D05F4A72
:102880009032904203D05D4AA83290420CD1026847
:1028900022F01E0242F016020260606C88B12068CD
:1028A000026842F008020BE0026822F00E0242F0D9
:1028B0000A020260606C20B12068026842F00402E3
:1028C0000260206888424BD0A84249D0B04247D02D
:1028D000B84245D0404543D0484541D050453FD00F
:1028E00058453DD0454A90423AD0444A1832904229
:1028F00036D0424A3032904232D0404A483290423A
:102900002ED03E4A603290422AD03C4A78329042E1
:1029100026D03A4A9032904222D0384AA832904289
:102920001ED0374A90421BD0354A1432904217D0FD
:10293000334A2832904213D0314A3C3290420FD071
:102940002F4A503290420BD02D4A6432904207D029
:102950002B4A7832904203D0294A8C3290420DD1D2
:10296000606E0268D20303D5026842F4807202608E
:10297000206F18B1026842F48072026020688842B9
:1029800026D0A84224D0B04222D0B84220D0404520
:102990001ED048451CD050451AD0584518D017496C
:1029A000884215D015491831884211D01349303169
:1029B00088420DD011494831884209D00F49603111
:1029C000884205D00D497831884201D00B499031B9
:1029D000016841F001010160E0E6000010000240E2
:1029E00028000240400002405800024070000240AF
:1029F00088000240A0000240B800024010040240DB
:102A00000854025870B5044600F0C2FE0546601C2A
:102A100002D004484068044400F0BAFE401BA042C3
:102A2000FAD370BD0800002410B5D0F8A030012BF7
:102A300009D0022B07D0D0F8A81041F00201C0F84D
:102A4000A810012010BD03689C6D0C4203D1DC6D01
:102A500044F0010404E09C6D31EA04041FD0032417
:102A6000DC658B0505D50368D3F8E0401443C3F853
:102A7000E0404B0505D50368D3F8E4401443C3F8A0
:102A8000E4400068084A01EA0203446D074A1C4317
:102A90004465106840EA91701060002010BDDC6D44
:102AA00044F00204DCE70000FFFFCF3F14A8004021
:102AB00070B50446D0F8A000022804D0D4F8A800CD
:102AC00040F008000DE02068D0F8C03013F07C5FC3
:102AD0000BD0D0F8C4309B020CD5D4F8A80040F439
:102AE0000070C4F8A800012070BDD4F8A80040F020
:102AF0002000F6E7D0F8C400C0F3044520462B467A
:102B0000FEF7C2FD21680120A840C1F8D000C4F83A
:102B10009C00002070BD7047D0F8A030012B07D07A
:102B2000D0F8A81041F00401C0F8A81001207047A7
:102B300061B10068012913D0D0F8B01021F0FE4136
:102B400041EA0261C0F8B010002070470068D0F878
:102B5000F01021F07C5141EA0261C0F8F010F3E777
:102B6000D0F8A01021F0FE4141EA0261C0F8A010A7
:102B7000EAE770B5D0F8A020012A09D0022A07D0D0
:102B8000D0F8A81041F00201C0F8A810012070BDD3
:102B90000B68CA6883B10B69072A43EA427325D0E0
:102BA0000C7A4A6942EA84724968806F00EBC1007E
:102BB000C0E90032002070BD072A0DD00C7AD6067D
:102BC0000D8A4B6943EA847246EA0543406F4968BF
:102BD0001A4340F82120EDE70B8A4FF06055D1E908
:102BE000062442EA034245EA0423EFE78A69DBE769
:102BF00030B5D0F8A050039C012D07D0D0F8A81014
:102C000041F00401C0F8A810012030BD0D01016899
:102C100045EA820040EA43002043C1F880000020DA
:102C200030BD0000134910B5884222D100F027F8CA
:102C300011490022C301CA6003D5CA6842F00102EB
:102C4000CA60020203D5CA6842F00202CA60820169
:102C500003D5CA6842F00402CA60020103D5CA68FB
:102C600042F00802CA60C00003D5C86840F01000F6
:102C7000C86010BDD0120024140200247047D0F8A0
:102C8000A8007047F0B5D0F8A0500024022D04D061
:102C9000D0F8A81041F0080129E0402905D04129C9
:102CA00029D0856D8D4219D943E00568D5F8A0601B
:102CB00016F4FE0F12D0D5F8A460760613D0D5F81E
:102CC000A460F60105D5D5F8A06016F0004F00D538
:102CD0000124D5F8A470C66FC56C25E0D0F8A81003
:102CE00041F0200103E0D0F8A81041F48071C0F851
:102CF000A8100120F0BD0568D5F8B06016F4FE0FED
:102D0000ECD0D5F8B4607606EDD0D5F8B460F60115
:102D100005D5D5F8B06016F0004F00D50124D5F8E0
:102D2000B470D0F88060456DC7F305273C44654317
:102D300003E0C56DD0F884604D4306EB85052E6831
:102D400016F0804656602E6836D026F06046166033
:102D5000D5F800C000262E4F0CF0005CC2F808C069
:102D6000D5F800C00CF0004CC2F810C0B5F804C093
:102D70001FFA8CFCC2F81CC0D5F804C0CCF3034C7D
:102D8000C2F80CC0D5F804C00CF4801CC2F814C002
:102D9000D5F804C00CF4001CC2F818C0D5F804C063
:102DA000CCF3066CC2F820C0D5F804C008354FEA51
:102DB000DC7CC2F824C008E0C6F38A46C7E700BF3F
:102DC00015F806C003F806C0761CD2F80CC017F838
:102DD0000CC0B445F4D840290AD041290CD0202990
:102DE0004FF001020CD200688A40C0F898200DE034
:102DF0000068C0F8A84009E00068C0F8B84005E0E5
:102E0000006801F01F018A40C0F89C200020F0BD3E
:102E10005C4B0108704700002DE9FF5FDFF80CB341
:102E200004460BF10401DBF8000025680F68AA4690
:102E30008007D5F85090696DD5F850806E6D2A6D79
:102E4000D5F854C02B6D00EA8770009009F47049E2
:102E50006F6D286D01EA09010191DAF85410DAF872
:102E60005490DAF8505008F00F0806EA0806029667
:102E700002F0F00203F071536FEA09061F4000F000
:102E800060700CEA020CCDF80CC0F20501EA0009F2
:102E90000CD4E843C00509D400214FF48073CAF86C
:102EA0005030CBF800102046FFF7B4FF700512D465
:102EB000E84340050FD4206800234FF48068D0F821
:102EC000DC20D0F8E410C0F85080CBF8003011407E
:102ED000204600F044FBDFF858A2009850B1226869
:102EE000830F00EA0A001065CBF8003020460099F5
:102EF000FFF711FE019850B12268830F00EA0A0023
:102F00001065CBF800302046019900F02AFB0298AA
:102F100050B12268830F00EA0A001065CBF8003038
:102F20002046029900F0E4FA039850B12268830F1A
:102F300000EA0A001065CBF800302046039900F043
:102F4000E7FA30050CD4E843000509D423680020D3
:102F50004FF400621A65CBF80000204600F002FB37
:102F6000B00512D4E84380050FD4206800234FF445
:102F70000078D0F8D820D0F8E010C0F85080CBF816
:102F800000301140204600F0EBFA30030CD4E84347
:102F9000000309D4236800204FF400221A65CBF8FF
:102FA0000000204600F0A2FAF0030CD4E843C0036E
:102FB00009D4236800204FF480321A65CBF8000052
:102FC000204600F0CBFA70030CD4E843400309D448
:102FD000226800204FF480231365CBF800002046C0
:102FE00000F0BBFAB0030FD4E84380030CD423688D
:102FF00000204FF400321A65CBF80000D4F8A80086
:1030000040F08000C4F8A800B9F1000F0BD022688E
:103010004FEA997309EA0A001065CBF80030494677
:103020002046FFF72BFE5FB12268BB0F07EA0A00BC
:103030001065CBF80030D4F8A8003843C4F8A800D5
:103040003C492068884268D1606881468068800772
:1030500063D0D9F82060D9F82410D9F82080D9F8A5
:103060002400D9F820C0D9F82470D9F82030D9F834
:103070002450D9F8202003F4FC4306F00F0AD9F8B5
:1030800024601D40D9F824B008F030080CF4C07C4E
:1030900002F4F02211EA0A0100EA080807EA0C0724
:1030A00006EA0206D9F820A004D0C9F8201020466C
:1030B00000F050FAB8F1000005D06168086241469E
:1030C000204600F049FA6FEA0B0040060ED46FEA82
:1030D0000A0040060AD460684021C36BC26B0162DB
:1030E0002046190C02F03F0200F035FA2FB160685B
:1030F00007623946204600F02CFA35B16068056257
:10310000D4F8A8002843C4F8A80036B16068066265
:10311000D4F8A8003043C4F8A800D4F8A8000028C8
:1031200002D02046FFF77EFDBDE8FF9F10A80040BB
:10313000FFFFCF3F00A000402DE9F04194B08E4941
:103140004C2204466846FDF7A4FA64B18B4D206812
:10315000A84202D100F580706060D4F8A0004FF062
:10316000000820B108E0012014B0BDE8F08120463D
:10317000C4F8A48000F004F92068816921F01001EE
:10318000816100F005FB0327064604E000F000FB28
:10319000801B0A2811D8206880690007F6D42068AF
:1031A000816941F00101816100F0F2FA06460DE00B
:1031B00000F0EEFA801B0A2808D9D4F8A80040F0E5
:1031C0000100C4F8A800C4F8A070CCE720688069AA
:1031D000C007EDD02068816941F00201816120695A
:1031E00001282068816937D041F040018161606920
:1031F00001282068816932D021F480418161A06971
:103200000128206881692DD041F4805181612068B6
:10321000A268816921F4407111438161206881694C
:1032200021F0A40181612068016921F01001016190
:10323000E068012819D010B302281BD020688169EA
:1032400041F0800181612068016941F01001016154
:10325000E06803280ED012E021F04001C6E741F4F7
:103260008041CBE721F48051D0E72068816941F0AB
:10327000040103E02068816941F02001816194F834
:1032800020006FF0FF02D4E90973A68B11024006FB
:1032900002EB0727A0F10070384327685B1E184334
:1032A00001EB06463043F861A068B0F5407F11D1CC
:1032B00004F13000A68D6FF00F0C89C801EB0641B8
:1032C000401E02EB0322104322680CEB0713184345
:1032D0000843D060A06E30B12068E26ED0F8C01014
:1032E0001143C0F8C010D4E919126846D14209D080
:1032F0002168236F51F8C82F50F8233022F00702BD
:103300001A430A60A16C49B12168E26C51F8BC3FD4
:1033100050F8226023F0070232430A60216D51B158
:103320002168636D51F8BC2F50F8233022F07002F1
:1033300042EA03120A60A16D51B12168E26D51F8B1
:10334000BC3F50F8220023F4E06242EA002008600B
:103350002068A84204D16068816821F0030181607F
:10336000C4F89C800121C4F8A880C4F8A0102046AD
:10337000FEF7A2F8F8E600006C4B010800A0004040
:10338000F0B587B0054614216846FDF7D6F9514ED1
:1033900000244F4B02272D684FF0090CDFF838E16D
:1033A0000C3B31684A4A75454C4801F101012AD16C
:1033B0000129316007D1116841F4807111601168F1
:1033C00001F480710591196841F0080119601968CC
:1033D00001F00801059103210091CDE90174CDE9C7
:1033E000034C694600F0C0F800220521132000F0CC
:1033F0006DFA132000F05CFA00220521152000F080
:1034000065FA15202EE0DFF8D8E075452ED10129A8
:10341000316007D1106840F480701060106800F4CB
:1034200080700590186840F00200186018686946BE
:1034300000F00200059060200090CDE90174294859
:10344000CDE9034C00F090F800220521142000F093
:103450003DFA142000F02CFA00220521162000F07D
:1034600035FA162000F024FA07B0F0BDDFF878C076
:103470006545F9D10129316007D1116841F48071A6
:103480001160116801F480710591196841F008011B
:1034900019601968052201F0080105914FF44051A7
:1034A0000091CDE90174CDE90342694600F05CF872
:1034B000002205219F2000F009FA9F2000F0F8F972
:1034C00000220521A02000F001FAA020CAE7000098
:1034D000EC4402580400002400A00040000C0258F4
:1034E00000A400400004025800D4004070470000CF
:1034F0000549884201D10BF08FBC0449884201D1B3
:103500000BF026BD70470000D012002428140024C0
:103510000249884201D10BF0F5BC70477C130024AE
:10352000D0F8A010012907D0D0F8A81041F004016C
:10353000C0F8A810012070470221C0F8A010002296
:1035400001688B6923F001038B61C0F8A820104645
:1035500070477047704770477047704770477047B3
:1035600070477047704700002DE9F84F03247A4DEB
:1035700000234FF001094FF0B04B4FF00F0AE4E089
:1035800009FA03F6324078D00F7907F00307012FCC
:1035900001D0022F1AD187684FEA430ED1F80CC030
:1035A00004FA0EF827EA08070CFA0EFC4CEA070C9E
:1035B000C0F808C0476891F804C0B743CCF3001CBA
:1035C0000CFA03FC4CEA070CC0F804C00E79F64371
:1035D000B6070BD0C6684FEA43088F6804FA08FCA8
:1035E00026EA0C0607FA08F73743C7600E7906F09B
:1035F0000306022E12D1DE080F694FEA437C00EB6E
:103600008606B646366A4FEADC6C0AFA0CF807FA08
:103610000CF726EA08063743CEF820700F790668C3
:103620004FEA430807F0030704FA08FC07FA08F713
:1036300026EA0C06374307604E6816F4403F1CD05C
:10364000464E376847F00207376036689F0706F036
:103650000206009623F0030606F1B046B6463F0F79
:10366000D6F80864DFF8F8800AFA07FC404526EA35
:103670000C0603D14FF0000C3AE065E0DFF8E4C03F
:10368000604502D14FF0010C32E0DFF8DCC060454C
:1036900002D14FF0020C2BE0DFF8D0C0604502D120
:1036A0004FF0030C24E0DFF8C8C0604502D14FF0B2
:1036B000040C1DE0DFF8BCC0604502D14FF0050CE2
:1036C00016E0DFF8B4C0604502D14FF0060C0FE001
:1036D000DFF8A8C0604502D14FF0070C08E0DFF822
:1036E000A0C0604502D14FF0090C01E04FF00A0C78
:1036F0000CFA07FC4CEA060CCEF808C44F68DBF85D
:103700000060FF0226EA020600D516435F46CBF8AA
:103710000060D1F804C0DBF804605FEA8C2C26EA74
:10372000020600D516437E606E684F6826EA0206E0
:10373000BF0300D516436E602E684F6826EA020666
:10374000FF0300D516432E605B1C0A6832FA03F6AD
:103750007FF416AFBDE8F88F80000058F44402589B
:10376000000002580004025800080258000C0258D9
:10377000001002580014025800180258001C025889
:10378000002402580AB1816170470904FBE7000078
:1037900001488068704700000800002402488168E2
:1037A000426811448160704708000024032010B56E
:1037B00000F0ACF801F0C0FD0F4A1049146813681E
:1037C000C4F3032203F00F038A5CC95C02F01F02FA
:1037D00001F01F01D0400A4A20FA01F111600949A5
:1037E00008600F2000F010F808B1012010BD00F0B3
:1037F0004DF8002010BD000018440258E04B0108AD
:10380000180000241400002410B5102804468AB0C3
:103810002AD200220146A12000F058F8A12000F091
:1038200047F8154804601548016841F0807101604F
:10383000006808A900F080700990684601F008FD52
:1038400001F068FD0E49400000220E4CB0FBF1F182
:103850000D4840F2E7330460C0E90332491EC0E975
:10386000011202F0B3FC10B101200AB010BD0648ED
:1038700002F002FDF9E7000008000024EC440258C1
:1038800040420F0000E00040F81E0024074882B0CC
:10389000016841F002010160006800220F2100F080
:1038A00002000090901E02B000F010B8F4440258DC
:1038B000002809DB410900F01F028900012001F105
:1038C000E0219040C1F80001704700000E4BF0B4B9
:1038D0001B680D46C3F30223C3F10706042E00D96B
:1038E0000426191D072901D2002300E0DB1E012454
:1038F00004FA06F19C40491E2940641E9940144078
:103900002143F0BC07F03DBE0CED00E0064900F09D
:10391000070210B54FF6FF040868044B204040EA48
:1039200002201843086010BD0CED00E00000FA050D
:1039300001680123C0F8DC340022C0F8D024886973
:10394000044A40F000608861486D104348650020DB
:1039500070470000030000107047006841620020BB
:103960007047F0B503685D6A39B19F6A4C1E00204C
:103970004FF4827605EB17450BE045EA024098626A
:1039800010E0471C06EB800053F800C0F8B205EBCE
:103990001C45A042F5D34FF4807000EB810045EA4E
:1039A00002421A500020F0BDD0F8E40406F0ADBC8D
:1039B00001EBC10200EB8202D0F8E404126A06F0C7
:1039C00000BC01EBC10200EB8202D0F8E404D2F8A3
:1039D000602206F052BCD0F8E40406F098BC0A0657
:1039E00001F00F0101EBC10100EB810101D51431A0
:1039F00001E001F51571006807F086BB01F00F02C8
:103A00000B0670B502EBC20104464FF001004FF007
:103A1000000504EB810102D54875143103E081F8FB
:103A2000555201F515710A70D4F89424012A08D072
:103A3000C4F89404206807F085F80020C4F8945472
:103A400070BD022070BD70B50279044601F00F0010
:103A5000904201D9012070BD01F00F024FF0000526
:103A60000B0602EBC2014FF0010204EB810102D50B
:103A70004A75143103E081F8555201F515718D70C6
:103A80000870D4F89404012808D0C4F8942420685D
:103A900007F0C2F90020C4F8945470BD022070BD34
:103AA00001F00F0101EBC10100EB8100D0F86802C9
:103AB00070472DE9F04101F00F0604460D064FF066
:103AC000010006EBC6014FF0000504EB810102D5B1
:103AD0004875143103E081F8555201F51571C2F3B0
:103AE0000A024F780B718A600E7007B14E83022B69
:103AF00000D14D71D4F89424012A09D0C4F894045B
:103B0000206806F067FF2846C4F89454BDE8F081A9
:103B10000220FBE770B501F00F05002405EBC5019D
:103B200000EB810101F5187181E81C0001F80B4CD4
:103B300001F80C5D8379012B00D1CA61827900689C
:103B400007F0C2F9002070BD70B50D46017904463A
:103B500005F00F00884201D9012070BD29064FF001
:103B600000064FF0010206D500EBC00104EB810115
:103B70004A75143107E005EBC50104EB810181F8BA
:103B8000556201F515718A700870D4F89404012803
:103B900007D0C4F89424206807F06AF9280702D0F7
:103BA00007E0022070BDA17904F59462206807F057
:103BB00007F90020C4F8946470BD70B501F00F04DB
:103BC000002504EBC401012600EB8101203181E8CE
:103BD0002C0001F80B6C01F80C4D8379012B00D1FE
:103BE000CA618279006807F06FF9002070BD00009B
:103BF0002DE9FC5F05680446284607F021FB0028F4
:103C00007ED1206807F048FB002879D0D5F8080855
:103C1000C0F30D20C4F8D804206807F03DFB8007EE
:103C200004D52068416901F002014161206807F074
:103C300033FBC10604F59460009035D52068816996
:103C400021F0100181612F6A07F00F01C7F3434093
:103C500001EBC101022804EB810606F5157602D0BE
:103C6000062812D01BE047F6F070074217D0C7F3C2
:103C70000A12F1681746284607F012FB7169F068CE
:103C8000394471613844F06009E0009908222846FF
:103C900007F006FB7069C7F30A11084470612068D9
:103CA000816941F010018161206807F0F5FA000395
:103CB0004FF0080B4FF0000A4FF001097CD5206847
:103CC000002607F0C8FA074674E0F80770D02068AD
:103CD000F1B207F0D9FA8046C00707D005EB4611CC
:103CE000C1F8089B3146204604F050F95FEA08709D
:103CF00024D505EB4611C1F808BBFA49206800E05D
:103D00003EE2026C00EB461001928A42D0F8081B9A
:103D100005D9090403D54FF40041C0F8081B20461B
:103D200000F001FBEF490198884207D9A0790128EA
:103D300004D120680121009A07F042F85FEAC860C8
:103D400004D505EB46111020C1F8080B5FEA887016
:103D50001DD56869000605D5D5F8040840F48061D2
:103D6000C5F8041806EBC60004EB800090F8571263
:103D700000F51570012905D180F803A02046F1B2A5
:103D800000F004FA05EB46110220C1F8080B5FEAC7
:103D9000886004D505EB46112020C1F8080B5FEAC6
:103DA000884005D505EB46114FF40050C1F8080BCB
:103DB0007F08761C002F88D1206807F06DFA400339
:103DC0006ED5206807F040FA0026074666E0F8073F
:103DD00062D02068F1B207F045FA8046C00723D0D0
:103DE000D5F8342806F00F0C05EB461309FA0CF051
:103DF0008243C5F83428C3F80899A07901280FD167
:103E000006EBC60004EB8000D0E9072111440162F3
:103E100036B9606A20B920680121009A06F0D0FF07
:103E20002046F1B2FFF7C4FD5FEA087003D505EB49
:103E30004611C1F808B95FEAC86004D505EB461120
:103E40001020C1F808095FEA486004D505EB461167
:103E50004020C1F808095FEA887016D53146284627
:103E600007F0C3F906EBC60004EB8000C17D1430F7
:103E7000012905D180F803A02046F1B200F082F9B3
:103E800005EB46110220C1F808095FEA086003D576
:103E90003146204604F0E0F87F08761C002F96D1CA
:103EA000206807F0F9F9002811DAD5F8040820F0A5
:103EB0000101C5F80418D4F8D00401283BD02046ED
:103EC00000F016FA2068416901F000414161206864
:103ED00007F0E2F900050BD5D5F80808C00702D0B5
:103EE000204600F049FA2068416901F4006141610F
:103EF000206807F0D1F900010AD52068416901F076
:103F000000614161D4F8D004E0B1204600F034FAF9
:103F1000206807F0C1F9C00472D5D5F8040820F074
:103F20000100C5F804082068102107F05EF900219F
:103F30004FF67F322DE000212046C4F8D0A4FFF7D1
:103F40000BFDBFE7C4F8D0942068406D0121C0F399
:103F50008300C4F8D4042046FFF7FEFCD8E700BF76
:103F600005EB4110C0F80829D0F8003923F40013FC
:103F7000C0F80039C0F8082BD0F8003B23F4001338
:103F8000C0F8003BD0F8003B43F00063C0F8003BB2
:103F9000491C20798842E3D8D5F81C0840F001116B
:103FA000C5F81C18E07B68B1D5F8840840F00B0117
:103FB000C5F88418D5F8440840F00B012846C5F828
:103FC00044180DE0D5F8140842F22B010843C5F857
:103FD0001408D5F8100840F00B012846C5F8101851
:103FE000D0F8000820F4FE61C5F80018A179206817
:103FF000009A06F0E5FE2068416901F480514161B4
:10400000206807F049F9800416D5206806F022FDE3
:10401000206807F008F9E07101F048F923680146CB
:10402000E279184607F09CF9204600F04BF9206829
:10403000416901F400514161206807F02DF9000742
:1040400007D5204600F058F92068416901F00801C1
:104050004161206807F020F9000615D5A8690126FE
:1040600020F08001A9610CE006EBC60004EB8000A3
:1040700090F85702012803D12046F1B2FFF7AFFCB8
:10408000761C2079B042EFD8206807F005F9C0020D
:104090001FD501264F4614E006EBC60005EB46137C
:1040A00004EB8001D3F800090A7E012A08D1002818
:1040B00006DAF0B2CF7540F080012046FFF78FFCA2
:1040C000761C2079B042E7D82068416901F480115C
:1040D0004161206807F0E0F8800234D501204A46AB
:1040E00029E000000A30544F00EBC00305EB4016F6
:1040F00004EB8301D6F8006B91F85832012B19D1EB
:10410000002E17DA94F8D834C6F3004603F0010302
:10411000B3420FD181F85722A96941F08003AB6106
:104120006969090606D4D5F8040840F40070C5F89A
:10413000040803E0401C21798142D5D820684169F8
:1041400001F400114161206807F0A6F8400007D58E
:104150002046FFF729FC2068416901F08041416158
:10416000206807F099F840070AD520684568680775
:1041700002D52046FFF72FFC2068416829434160A3
:10418000BDE8FC9FD0F8E40406F019B9D0F8E404C7
:1041900006F029B9F8B5040004D0D4F89804002535
:1041A00010B106E00120F8BD2046C4F8945400F098
:1041B00057F80320C4F89804206806F0FBFD207C23
:1041C0008DF8000094E80F0006F052FC0226B0BB08
:1041D0002068002107F084F888BB002001270CE04C
:1041E00000EBC001421C04EB81014F750D76CD61DF
:1041F0000D624D620875C885D0B221798142EFD831
:10420000002011E000EBC001421C04EB810181F8A9
:10421000555281F85852C1F85C52C1F86052C1F849
:10422000645281F85402D0B221798142EAD8207CCC
:104230008DF8000094E80F0006F006FD10B1C4F8F8
:104240009864AFE7207B6574C4F89874012802D1A4
:104250002046FFF76DFB206806F0E8FC0020F8BD63
:1042600010B5B0B00446B8216846FCF766FA1349A9
:104270002068884220D100204FF480214FF4401262
:104280002192CDE90010684600F016FA08B1FDF75A
:10429000ECF800F0B3F80A48016841F000710160E1
:1042A00000680022052100F000702E904D20FFF7DD
:1042B0000DFB4D20FFF7FCFA30B010BD00000440AC
:1042C000D844025870B50446C079012570B102285F
:1042D00001D0FDF7CAF8D4F8E404294606F0F2F854
:1042E000D4F8E404BDE8704006F0A6B80025F2E773
:1042F000D0F8E40406F0CFB8D0F8E40406F0D5B85E
:1043000010B50446D0F8940401280AD00120617445
:10431000C4F89404206807F012F80020C4F894044C
:1043200010BD022010BDD0F8E42400F594611046C1
:1043300006F0D4B810B5D0F89414044600680129EA
:1043400009D00121C4F89414C168490609D5617BDC
:10435000012902D005E0022010BD816B41F48031BB
:104360008163206806F01FFF206806F051FC0020E2
:10437000C4F8940410BD000010B50446D0F8E4045D
:1043800006F0EEF82068D0F8001E41F00101C0F8F8
:10439000001EE07A002804D00248016841F00601BE
:1043A000016010BD10ED00E0134970B50A68D243FA
:1043B000520705D5096801F00701814213D118E0C1
:1043C0000A6822F0070202430A60FFF7E1F90A4D8A
:1043D0004FF47A760446083D07E000BFFFF7D8F9AE
:1043E000001BB04201D9012070BD2868C043800481
:1043F000F4D4002070BD00000C4802580248016847
:1044000041F08071016070470C48025810B500F00F
:104410004DFF05490968054AC1F30211515C01F0DD
:104420001F01C84010BD000020440258E04B0108A5
:10443000494930B5484C0B1D0A68143409681D6899
:10444000246802F00303C5F30012C1F30531C4F37D
:10445000CC04002914FB02F200EE102AF8EE400A08
:1044600075D03F4A9FED3D1AB7EE000A6BB1DFED04
:104470003D1A012B01D0022B64D002EE101A1168F4
:10448000F8EE422A81EEA22A21E0334C283C236830
:104490009B0612D5344B246801EE901A1168C4F3C0
:1044A000C104F8EE612AE34001EE903AC1F308013D
:1044B000F8EE611A81EEA22A0BE001EE901ADFED10
:1044C0002B2A00BFF8EE611A116882EEA12AC1F30F
:1044D000080101EE901A1168F8EE611A40EE811A97
:1044E00071EE800A62EE200AC1F3462101EE101A35
:1044F000B8EE411A31EE001AC0EE811ABCEEE11A94
:1045000080ED001A1168C1F3064101EE101AB8EEF1
:10451000411A31EE001AC0EE811ABCEEE11A80EDAC
:10452000011A1168C1F3066101EE101AB8EE411AC2
:1045300031EE000A80EE801ABCEEC10A80ED020A5C
:1045400030BD04E001EE901ADFED092ABAE7002140
:10455000016041608160F3E728440258000000399F
:10456000384402580024744A0090D0030024744C4C
:10457000001BB74B494930B5484C0B1D0A681C3429
:1045800009681D68246802F00303C5F30022C1F323
:104590000551C4F3CC04002914FB02F200EE102AEA
:1045A000F8EE400A75D03F4A9FED3D1AB7EE000A7B
:1045B0006BB1DFED3D1A012B01D0022B64D002EE6E
:1045C000101A1168F8EE422A81EEA22A21E0334C3B
:1045D000283C23689B0612D5344B246801EE901AC0
:1045E0001168C4F3C104F8EE612AE34001EE903A89
:1045F000C1F30801F8EE611A81EEA22A0BE001EE88
:10460000901ADFED2B2A00BFF8EE611A116882EED6
:10461000A12AC1F3080101EE901A1168F8EE611A9F
:1046200040EE811A71EE800A62EE200AC1F3462143
:1046300001EE101AB8EE411A31EE001AC0EE811ADE
:10464000BCEEE11A80ED001A1168C1F3064101EEDB
:10465000101AB8EE411A31EE001AC0EE811ABCEE03
:10466000E11A80ED011A1168C1F3066101EE101A1A
:10467000B8EE411A31EE000A80EE801ABCEEC10A93
:1046800080ED020A30BD04E001EE901ADFED092A48
:10469000BAE70021016041608160F3E728440258D5
:1046A00000000039404402580024744A0090D003AE
:1046B0000024744C001BB74B2DE9FE4F0546DFF874
:1046C00000A450F8081B0024FD4FC943019005F1D8
:1046D000280026460AF1240A009008011DD4686EBD
:1046E00050B1B0F5801F0CD0B0F5001F0ED0B0F562
:1046F000401F1ED001240FE0386840F400303860BD
:1047000017E00198022103F07DFF03E000980221E9
:1047100004F008F804000CD026462888C043C005E1
:1047200023D4A86D05281ED2DFE800F00C11161B5B
:104730001B006A6EDAF8001021F440111143CAF828
:104740000010EAE7386840F40030386009E001986A
:10475000002103F057FF03E00098002103F0E2FF7F
:104760000446C4B100E0012426462888DFF85083BF
:10477000C04308F12C0840052FD4D5F8A400B0F5AB
:10478000C00F28D010DCB8B1B0F5001F19D0B0F5BB
:10479000800F0FD11AE0AA6DDAF8001021F007019E
:1047A0001143CAF80010E0E7B0F5000F13D0B0F5E0
:1047B000200F10D001240FE0386840F4003038603A
:1047C00009E00198002103F01DFF03E0009800219B
:1047D00003F0A8FF044694B126462888C04300058C
:1047E00030D4D5F8A800B0F1407F29D011DCC0B199
:1047F000B0F1807F1AD0B0F1007F10D11BE0D5F866
:10480000A420D8F8001021F460011143C8F800106A
:10481000E3E7B0F1806F13D0B0F1A06F10D00124A6
:104820000FE0386840F40030386009E0019800215A
:1048300003F0E8FE03E00098002103F073FF044654
:1048400094B126462868DFF878B2C0430BF1200BFC
:1048500080011FD4E86CD8B110280FD0202812D0C6
:10486000302815D0012414E0D5F8A820D8F800107D
:1048700021F0E0611143C8F80010E3E7386840F424
:104880000030386004E00198022103F0BBFE0446CA
:1048900074B126462888C043C0042BD4E86DB0F517
:1048A000005F20D00DDCA0B1B0F5805F0FD115E026
:1048B000EA6CDBF8001021F030011143CBF8001056
:1048C000E8E7B0F5405F13D0B0F5804F10D0012479
:1048D0000FE0386840F40030386009E001980021AA
:1048E00003F090FE03E00098002103F01BFF044654
:1048F0008CB126462888C043800429D4286EB0F5A0
:10490000403F23D010DC08B3B0F5803F14D0B0F5A1
:10491000003F0FD115E0EA6DDAF8001021F4E04114
:104920001143CAF80010E5E7B0F5802F0ED0B0F5BE
:10493000A02F0BD001240AE00198012103F062FEB0
:1049400003E00098012103F0EDFE044694B12646F1
:104950002888C04340042AD4D5F8AC00B0F1405FA9
:1049600023D010DC08B3B0F1805F14D0B0F1005F49
:104970000FD115E02A6EDAF8001021F4E02111437E
:10498000CAF80010E4E7B0F1804F0ED0B0F1A04FAC
:104990000BD001240AE00198012103F033FE03E06B
:1049A0000098012103F0BEFE044674B12646288813
:1049B000C04300041FD4E86ED8B1B0F1805F0ED0C0
:1049C000B0F1005F10D0012414E0D5F8AC20D8F885
:1049D000001021F0E0411143C8F80010E7E7386803
:1049E00040F40030386004E00198012103F00AFE31
:1049F000044674B126462868C043C0011ED4A86C82
:104A0000D0B101280ED0022811D0032814D00124DF
:104A100013E0EA6EDAF8001021F040511143CAF8B1
:104A20000010E8E7386840F40030386004E001988E
:104A3000022103F0E7FD04466CB126462868C04316
:104A4000400255D41F48016841F480710160FEF7AF
:104A50009FFE81460EE0AA6CDBF8001021F00301F6
:104A60001143CBF80010E9E7FEF792FEA0EB090036
:104A700064283BD813480068C005F5D5BCBBDFF8F7
:104A80004090B5F8B01009F14409D9F8000001F4DC
:104A9000407100F44070884211D0D9F80010D9F864
:104AA000002021F4407142F48032C9F80020D9F886
:104AB000002022F48032C9F80020C9F8001003E079
:104AC0002C44025800480258D5F8B000B0F5807F59
:104AD00019D1FEF75DFE029011E000BFFEF758FE0F
:104AE0000299411A41F28830814208D903242646AE
:104AF0002878DFF81494C043C00721D03CE0D9F8EF
:104B000000008007EAD5D5F8B010C1F301200328D2
:104B1000FE480DD0016821F47C510160B5F8B02049
:104B2000D9F80010C2F30B021143C9F80010DFE7F7
:104B3000F74A036802EA111223F47C511143ECE7AF
:104B4000A86F182816D005DCA0B1082808D01028B6
:104B500004D10AE020280DD028280BD001240AE037
:104B60000198012103F04EFD03E00098012103F0BC
:104B7000D9FD044664B126462878C04380071ED478
:104B8000686F062819D2DFE800F0160C1116161609
:104B9000AA6FD9F8001021F038011143C9F80010AC
:104BA000EAE70198012103F02DFD03E000980121BF
:104BB00003F0B8FD04467CB100E0012426462878C5
:104BC000C04340071FD4D5F89000062819D2DFE86B
:104BD00000F0160C111616166A6FD9F8001021F0A5
:104BE00007011143C9F80010E9E70198012103F01A
:104BF00009FD03E00098012103F094FD0446A4B1EF
:104C000000E0012426462878C04380062BD4D5F83E
:104C10008C00B0F1405F24D011DC10B3B0F1805FA4
:104C200015D0B0F1005F10D116E0D5F89020D8F87B
:104C3000001021F007011143C8F80010E3E7B0F1BC
:104C4000804F0ED0B0F1A04F0BD001240AE00198A4
:104C5000002103F0D7FC03E00098022103F062FD7D
:104C6000044694B126462878C04340062BD4D5F894
:104C70009800B0F5406F24D011DC10B3B0F5806F10
:104C800015D0B0F5006F10D116E0D5F88C20D9F80A
:104C9000001021F0E0411143C9F80010E3E7B0F53E
:104CA000805F0ED0B0F5A05F0BD001240AE0019820
:104CB000002103F0A7FC03E00098022103F032FD7D
:104CC000044694B126462878C04300062BD4D5F874
:104CD0009C00B0F5C04F24D011DC10B3B0F5005FDC
:104CE00015D0B0F5804F10D116E0D5F89820D8F83F
:104CF000001021F4E0511143C8F80010E3E7B0F5CB
:104D0000004F0ED0B0F5204F0BD001240AE00198DF
:104D1000002103F077FC03E00098022103F002FD7C
:104D2000044654B126462878C04300071ED4D5F85F
:104D30008000B0F5805F0AD00FE0D5F89C20D8F84D
:104D4000001021F460411143C8F80010EBE700980F
:104D5000022103F0E7FC00B10126D5F88020D9F844
:104D6000001021F440511143C9F800102878C043C5
:104D7000C00613D4D5F89400B0F5807F05D1009813
:104D8000022103F0CFFC00B10126D5F89420D8F819
:104D9000001021F440711143C8F800102868C04386
:104DA000000316D4D5F8A00038B1B0F5803F09D083
:104DB000B0F5003F0BD001240AE00198002103F078
:104DC00021FC03E00098022103F0ACFC04468CB106
:104DD00026462868C043400322D4D5F88400B0F5A5
:104DE000801F11D0B0F5001F13D0B0F5401F15D0B3
:104DF000012414E0D5F8A020D8F8001021F44031A7
:104E00001143C8F80010E4E7386840F40030386017
:104E100004E00098012103F085FC04465CB12646BD
:104E20002868C043C0031CD4286D70B1B0F5803F22
:104E300010D0012414E0D5F88420D9F8001021F412
:104E400040111143C9F80010EAE7386840F4003017
:104E5000386004E00198022103F0D4FB0446DCB181
:104E600026462868C043800005D40098022103F03C
:104E700059FC00B101262868C04380031BD4E86FA9
:104E8000B8B1B0F5807F10D0B0F5007F11D0B0F58B
:104E9000407F0ED001240DE02A6DDBF8001021F4D4
:104EA00080311143CBF80010DBE7386840F4003064
:104EB00038607CB326462868C043C00207D42A6FF6
:104EC000DAF8001021F000411143CAF800102868F8
:104ED000C043800207D4AA6EDAF8001021F0807176
:104EE0001143CAF800102868C043400009D407489D
:104EF000016821F4004101600168D5F8B420114334
:104F000001602868C04306E0544402581044025827
:104F1000CFFFFF001DE007D46A6DDBF8001021F021
:104F200040511143CBF800102868C043000208D458
:104F3000D5F88820D9F8001021F440011143C9F8B0
:104F4000001028790024C04300F00100204309D05C
:104F50000EE0EA6FD9F8001021F440711143C9F84E
:104F60000010A8E70198002103F04CFB00B10646B1
:104F70002879C04300F00200204305D101980121A7
:104F800003F040FB00B106462879C04300F004005E
:104F9000204305D10198022103F034FB00B10646FD
:104FA0002879C04300F00800204305D10098002173
:104FB00003F0B8FB00B106462879C04300F01000AA
:104FC000204305D10098012103F0ACFB00B1064657
:104FD0002879C04300F02000044304D10098022146
:104FE00003F0A0FB00B916B10120BDE8FE8F002040
:104FF000FBE700002DE9F05F04000F467ED0DFF8EC
:105000003882D8F8000000F00F00B8420CD2D8F86F
:10501000001021F00F013943C8F80010D8F8000043
:1050200000F00F00B84269D12078844D40070AD5BE
:105030002069296801F07001884204D9296821F0AB
:1050400070010143296020787C4E361D00070AD587
:105050006069316801F07001884204D9316821F03B
:105060007001014331602078C0060AD5A06931681B
:1050700001F4E061884204D9316821F4E061014320
:1050800031602078DFF8B4B180060BF1080B0CD545
:10509000E1695846DBF8002002F07002914204D921
:1050A000026822F070020A430260207880070AD565
:1050B000E068296801F00F01884204D9296821F0CD
:1050C0000F01014329602078C0073ED05B49A268E8
:1050D0002868183920F4706010432860606802283E
:1050E00018D0032819D00968012819D049070029C8
:1050F0004ADADFF848A1AAF1080A00E044E0DAF849
:10510000002022F007020243CAF80020FEF740FB0D
:10511000814612E009688903E9E709688901E6E741
:10512000C905E4E7FEF734FBA0EB090141F2883042
:10513000814202D90320BDE8F09F6168DAF80000DF
:1051400000F03800B0EBC10FECD1207880070AD511
:10515000E068296801F00F01884204D2296821F033
:105160000F0101432960D8F80010404601F00F01FB
:10517000B9420BD9016821F00F0139430160006881
:1051800000F00F00B84201D00120D4E7207840079A
:105190000AD52069296801F07001884204D2296883
:1051A00021F0700101432960207800070AD5606969
:1051B000316801F07001884204D2316821F0700139
:1051C000014331602078C0060AD5A069316801F436
:1051D000E061884204D2316821F4E061014331602A
:1051E000207880060CD5E1695846DBF8002002F0F3
:1051F0007002914204D2026822F070020A430260F7
:1052000000F09AF80E492A682B68C2F3032203F0D3
:105210000F038A5CC95C02F01F0201F01F01D0403D
:10522000084A20FA01F11160074908600748006840
:10523000BDE8F05FFEF7E8BA0020005218440258BB
:10524000E04B01081800002414000024080000248A
:1052500070B5144C3F220260124A24680832131DB4
:10526000114D04F00704446016681C1D06F47066B6
:105270008660166806F00F06C660126802F07002BB
:1052800002611A6802F0700242611A6802F4E06278
:105290008261226802F07002C261286800F00F008B
:1052A000086070BD104402580020005230B500F074
:1052B00043F80B4A0B490C4B15681468C5F30322DD
:1052C00004F00F048A5C095D02F01F0201F01F0167
:1052D000D040064A20FA01F119601060084630BD3E
:1052E00018440258E04B0108180000241400002460
:1052F00000B5FFF7DBFF05490968054AC1F3021154
:10530000515C01F01F01C84000BD00001C44025860
:10531000E04B010800B5FFF7C9FF05490968054AD8
:10532000C1F30221515C01F01F01C84000BD000023
:105330001C440258E04B0108454970B545480968CE
:10534000434B103B11F0380208D00111082A03D05A
:10535000102A0BD0182A0BD0084670BD1968890690
:10536000FBD51968C1F3C101C84070BD3A4870BD92
:105370003749374D18310C1D24350A6809682668ED
:105380002D6802F0030406F00102C1F30511C5F314
:10539000CC0515FB02F200EE102AB8EE400AE9B384
:1053A0002F4ADFED2E0AB7EE001A6CB1DFED2D1A91
:1053B000012C01D0022C43D002EE101A1068F8EE36
:1053C000422A81EEA22A1EE01C68A40611D51B68A1
:1053D00001EE901A1168C3F3C103F8EE612AD840B8
:1053E00001EE900AC1F30800F8EE611A81EEA22ADC
:1053F0000BE001EE901ADFED1C2A00BFF8EE611AF7
:10540000106882EEA12AC0F3080001EE900AF8EEBF
:10541000611A40EE201A31EE810A00E015E022EE1A
:10542000000A1068C0F34620401C00EE900AF8EE17
:10543000600A80EE201ABCEEC10A10EE100A70BDA0
:1054400001EE901ADFED092AD8E7002070BD0000B8
:10545000104402580090D00300366E01000000395D
:10546000304402580024744A0024744C001BB74B8B
:105470002DE9F05F04007DD0FF4F2078FE4D1837F6
:10548000DFF8F483103DC00748D0D8F80000396831
:1054900000F03800102815D0182803D101F00300BF
:1054A00002280FD06068B0F5803F12D010B1B0F57F
:1054B000A02F18D0286820F480302860286820F4B5
:1054C000802009E02868800328D560680028D2D0B1
:1054D00024E0286840F480302860606888B1FEF7D6
:1054E00057F9064609E0286840F480202860F0E774
:1054F000FEF74EF9801B64287ED828688003F7D514
:105500000CE0FEF745F9064605E000BFFEF740F95E
:10551000801B6428F0D828688003F7D4207880079F
:1055200056D5D8F80000DFF85093396810F03800ED
:10553000A9F10C090ED0182801D188070AD0E0681B
:10554000A8B3296821F0190101432960FEF720F969
:10555000064628E02868400702D5E06800288AD07F
:10556000E168286820F0190008432860FEF710F968
:10557000064606E0D2E000BFFEF70AF9801B0228CB
:10558000BAD828684007F7D5217CD9F8002022F046
:10559000FE4242EA0161C9F8001019E0FEF7F8F88E
:1055A000801B0228A8D828684007F7D5ECE7FFE75A
:1055B000286820F001002860FEF7EAF8064604E0BB
:1055C000FEF7E6F8801B022896D828684007F7D433
:1055D0002078C00646D5D8F80000DFF89C923968DC
:1055E00000F03800A9F10409082812D0182805D1C4
:1055F00001F00300012800E0CEE00AD0E0690028B5
:10560000286820D040F080002860FEF7C1F80646E8
:1056100015E02868C00502D5E06980287ED194F89D
:105620002010D9F8002022F07C5242EA0161C9F82A
:10563000001017E0FEF7ACF8801B0228A0D82868FD
:10564000C005F7D5EBE720F080002860FEF7A0F852
:10565000064604E0FEF79CF8801B022890D82868D4
:10566000C005F7D42078000729D5834861696430E4
:1056700000298146016811D041F001010160FEF767
:1056800087F8064605E000BFFEF782F8801B022877
:1056900088D8D9F800008007F6D510E021F0010184
:1056A0000160FEF775F8064605E000BFFEF770F8EA
:1056B000801B022870D8D9F800008007F6D4207823
:1056C000800623D5A0690028286810D040F48050B7
:1056D0002860FEF75DF8064605E000BFFEF758F8C3
:1056E000801B022858D828688004F7D50EE020F4E3
:1056F00080502860FEF74CF8064604E0FEF748F8B4
:10570000801B022848D828688004F7D420784007F6
:1057100051D5DFF86891D9F8001000E015E141F4A7
:105720008071C9F80010FEF733F8064605E000BFA7
:10573000FEF72EF8801B64282ED8D9F80000C0058B
:10574000F6D54D4EA068603601280AD008B105286C
:1057500013D0306820F001003060306820F0040081
:1057600002E0306840F001003060A06841F2883A01
:1057700098B1FEF70DF881460AE0306840F0040069
:105780003060EEE7FEF704F8A0EB0901514503D8BD
:1057900030688007F6D50EE072E0FDF7F9FF81462C
:1057A00006E000BFFDF7F4FFA0EB0901514567D803
:1057B00030688007F6D4606A00287CD0DFF8B8A093
:1057C000D8F800100AF1200A4FF6F87B0AF1040815
:1057D000C1F3C2010329AAF104096DD00228286887
:1057E00020F08070286003D0FDF7D2FF044681E0EE
:1057F000FDF7CEFF064604E0FDF7CAFF801B022836
:1058000075D828688001F7D4E26A40F2F33138682D
:1058100054F8283F884340EA021018433860217B3F
:105820004FF4FE0C22894FF0FE47208A4902267D64
:10583000521E401EA1F5007189B2C2F30802114345
:10584000761E0CEA00400143484607EA066211430F
:10585000CAF80010D9F8001021F00101C9F80010B1
:10586000D8F80030266A23EA0B0343EAC601C8F8D9
:105870000010D9F8001004E0104402580048025803
:1058800035E0A26921F00C011143C9F8001001684C
:10589000E26921F0020111430160016841F48031A5
:1058A0000160016841F400310160016841F4802128
:1058B0000160016801E06CE020E041F0010101605D
:1058C000286840F080702860FDF762FF044604E01D
:1058D000FDF75EFF001B022809D828688001F7D574
:1058E00057E000BFFDF754FF001B022802D9032038
:1058F000BDE8F09F28688001F4D44AE039680128A7
:10590000DAF8000021D0A26A01F0030393421CD10F
:10591000E26AC1F305118A4217D1216BC0F3080274
:10592000491E8A4211D1616BC0F34622491E914241
:105930000BD1A16BC0F30642491E914205D1E16B28
:10594000C0F30660491E814201D00120D0E7A16C5E
:105950004646D8F80000C0F3CC00814219D0D9F8EF
:1059600000004D4620F00100C9F80000FDF710FFCF
:105970004FEA0007FDF70CFFB842FBD0A26C30687D
:1059800020EA0B0040EAC2003060286840F00100C5
:1059900028600020ACE770472DE9F0470446006816
:1059A0000021036942698768D4F8846000F13009F6
:1059B0005FEA025C03EA02050AD51A0708D5816985
:1059C00041F400618161204600F085FABDE8F0876E
:1059D00015F0600F08D1680706D5616F204688472B
:1059E000216F20468847012105F04100012805D19B
:1059F000680703D4216F20468847012105F0220063
:105A0000022806D1680704D4616F2046BDE8F0473C
:105A100008470029DAD128074FF001085BD5206834
:105A2000816941F0080181612068816941F01001BC
:105A300081612068816941F40061816120680169A8
:105A400021F0080101612068806810F4404F20D0E7
:105A500023E0E0680F2806D92068616E006B0860BB
:105A6000606E001D0FE0072806D9B9F80000616ECE
:105A70000880606E801C06E02068616E90F830003F
:105A80000870606E401C6066B4F86A00401EA4F89E
:105A90006A00B4F86A000028DBD1204602F0ECFE70
:105AA000C4F88480D4F8880018B12046FFF773FF4B
:105AB0008CE7052E07D0042E09D0032E86D1204670
:105AC00000F028FB82E7204600F025FB7EE7204619
:105AD00000F000FA7AE715F4587FE9D068060AD595
