:020000040800F2
:1000000028BC00246D040008317700082D6C00081E
:1000100065750008750D000845A400080000000083
:10002000000000000000000000000000AD03000818
:100030001514000800000000090400084D830008A2
:100040008704000887040008870400088704000864
:100050008704000887040008870400088704000854
:10006000870400088704000887040008C90F0008F7
:10007000CB0F0008CD0F0008CF0F0008D10F0008EC
:10008000D30F0008D50F0008870400081D140008CE
:1000900035140008291400084114000887040008DA
:1000A0008704000887040008870400088704000804
:1000B00087040008870400088704000887040008F4
:1000C00087040008870400088704000887040008E4
:1000D00019820008D59300088704000887040008E7
:1000E0008704000887040008000000008704000857
:1000F000870400088704000887040008D70F000859
:1001000087040008870400088704000887040008A3
:1001100087040008DD890008D184000887040008EE
:10012000D90F0008DB0F00088704000887040008C7
:100130008704000887040008870400088704000873
:1001400000000000000000000000000000000000AF
:100150008704000887040008870400088704000853
:100160008704000887040008870400088704000843
:1001700087040008AD7A000887040008000000002A
:100180008704000887040008E9890008F589000849
:100190008704000887040008870400088704000813
:1001A0008704000887040008870400080000000096
:1001B00087040008870400088704000887040008F3
:1001C0008704000887040008000000000000000009
:1001D000000000000000000087040008000000008C
:1001E000000000000000000000000000000000000F
:1001F00000000000000000008704000887040008D9
:100200008704000887040008000000008704000835
:100210008704000887040008870400088704000892
:1002200087040008000000008704000800000000A8
:100230008704000887040008000000008704000805
:100240008704000887040008870400088704000862
:100250008704000887040008870400088704000852
:100260008704000887040008870400088704000842
:1002700087040008870400088704000800000000C5
:100280008704000887040008870400088704000822
:100290000000000087040008870400080000000038
:1002A0000000000087040008870400088704000895
:1002B000C993000887040008870400084D1400084B
:1002C00059140008C1840008C584000800F002F831
:1002D00000F05CF80AA090E8000C82448344AAF184
:1002E0000107DA4501D100F051F8AFF2090EBAE882
:1002F0000F0013F0010F18BFFB1A43F0010318475A
:10030000844C0100A44C01000A444FF0000C10F88A
:10031000013B13F0070408BF10F8014B1D1108BF83
:1003200010F8015B641E05D010F8016B641E01F823
:10033000016BF9D113F0080F1EBF10F8014BAD1C73
:100340000C1B09D16D1E58BF01F801CBFAD505E091
:1003500014F8016B01F8016B6D1EF9D59142D6D3EB
:10036000704700000023002400250026103A28BF13
:1003700078C1FBD8520728BF30C148BF0B60704717
:100380001FB514F0A5F91FBD10B510BD00F01BFA84
:100390001146FFF7F5FF10F047FA00F039FA03B401
:1003A000FFF7F2FF03BC00F03DFA00002C4B196888
:1003B0000868B0E8F04F80F30988BFF36F8F4FF003
:1003C000000080F3118870470000000008480068B2
:1003D000006880F308884FF0000080F3148862B64C
:1003E00061B6BFF34F8FBFF36F8F00DF00BF00BF59
:1003F00008ED00E0DFF80C00016841F470010160D5
:10040000704700BF88ED00E0EFF30980BFF36F8F06
:10041000134B1A681EF0100F08BF20ED108A20E958
:10042000F04F106009B44FF0500080F31188BFF313
:100430004F8FBFF36F8F13F0E1FB4FF0000080F39D
:10044000118809BC19680868B0E8F04F1EF0100F59
:1004500008BFB0EC108A80F30988BFF36F8F704734
:100460001C000024EFF30580704700000948804716
:1004700009480047FEE7FEE7FEE7FEE7FEE7FEE786
:10048000FEE7FEE7FEE7FEE704480549054A064B9E
:100490007047000001840008CD02000828B2002443
:1004A00028BC002428B4002428B4002453EA020CF9
:1004B00000F069802DE9F04B4FF00006002B1FBFC4
:1004C000B3FA83F503FA05F424FA05F65E4012BF89
:1004D0001643B2FA82F502FA05F4C5F120051EBFF3
:1004E00022FA05FC44EA0C04203556EA044C4FEA93
:1004F000144418BF641C4FF000084FF000099042EC
:1005000071EB030C39D3002919BFB1FA81F701FA55
:1005100007F6B0FA80F700FA07F6C7F120071EBF0A
:1005200020FA07FC46EA0C062037B6FBF4FCA7EBE2
:100530000507103F07F01F0BCBF120060CFA0BFB51
:100540002CFA06F644BFB3460026202FA4BF5E4611
:100550004FF0000B5BEA060C08BF4FF0010B19EBE4
:100560000B09ABFB027C48EB0608C01B06FB02CC68
:100570000BFB03CC71EB0C01C1E70B460246414675
:100580004846BDE8F08B13B54FF000004FF0000176
:10059000AFF30080BDE81C407047B2F120030AD5DC
:1005A000C2F1200320FA02F001FA03F321FA02F16A
:1005B00040EA0300704721FA03F04FF00001704752
:1005C00010B54C1084EA530404D54042C1F1000137
:1005D00038BF491E1B4204D55242C3F1000338BF45
:1005E0005B1EFFF763FF14F0804F04D04042C1F15F
:1005F000000138BF491E14F0004F04D05242C3F12D
:10060000000338BF5B1E10BD032A40F2308010F09B
:10061000030C00F0158011F8013BBCF1020F62449D
:1006200098BF11F801CB00F8013B38BF11F8013B2E
:10063000A2F1040298BF00F801CB38BF00F8013BDB
:1006400011F0030300F02580083AC0F0088051F84B
:10065000043B083A51F804CBA0E80810F5E7121D56
:100660005CBF51F8043B40F8043BAFF30080D20775
:1006700024BF11F8013B11F801CB48BF11F8012B41
:1006800024BF00F8013B00F801CB48BF00F8012B64
:10069000704710B5203AC0F00B80B1E81850203AEE
:1006A000A0E81850B1E81850A0E81850BFF4F5AF12
:1006B0005FEA027C24BFB1E81850A0E8185044BF9C
:1006C00018C918C0BDE810405FEA827C24BF51F809
:1006D000043B40F8043B08BF7047D20728BF31F8FD
:1006E000023B48BF11F8012B28BF20F8023B48BF4E
:1006F00000F8012B704702F0FF0343EA032242EAAD
:10070000024200F002B84FF000020429C0F012804B
:1007100010F0030C00F01B80CCF1040CBCF1020FB4
:1007200018BF00F8012BA8BF20F8022BA1EB0C0189
:1007300000F00DB85FEAC17C24BF00F8012B00F87F
:10074000012B48BF00F8012B70474FF0000200B5A5
:10075000134694469646203922BFA0E80C50A0E8E4
:100760000C50B1F12001BFF4F7AF090728BFA0E892
:100770000C5048BF0CC05DF804EB890028BF40F85E
:10078000042B08BF704748BF20F8022B11F0804FA0
:1007900018BF00F8012B704770477047704710B5BD
:1007A00000F00CF8006810BD10B5044600F006F823
:1007B000046010BD00487047C8B10024004870476D
:1007C000C8B1002470477546FFF7F4FFAE46050038
:1007D0006946534620F00700854618B020B5FFF75C
:1007E00053FEBDE820404FF000064FF000074FF0E9
:1007F00000084FF0000B21F00701AC46ACE8C0093F
:10080000ACE8C009ACE8C009ACE8C0098D46704747
:1008100010B50446AFF300802046BDE81040FFF756
:10082000BEBD000001491820ABBEFEE72600020055
:10083000010010B50BD000F00FFAB0EE600A0846C8
:1008400000F00FFABDE81040084600F065B99FEDD2
:10085000010A10BD0000000010B190ED100A7047B1
:100860009FED010A704700000000000010B190EDFC
:10087000120A70479FED010A704700000000000057
:1008800010B190ED110A70479FED010A704700000A
:100890000000000070B504000D464FF0FF362DED4E
:1008A000028B20D008001ED090ED000A7600B5EE35
:1008B000C00AF1EE10FA16D990ED020AB5EEC00AA0
:1008C000F1EE10FA0FD9D0ED060A90ED050AF4EE1C
:1008D000C00AF1EE10FA06D90AF07CFEB5EEC00AA5
:1008E000F1EE10FA03D83046BDEC028B70BD95EDE9
:1008F000038AB5EEC08AF1EE10FA01DCB1EE008A8F
:1009000095ED000A284684ED000A0AF063FE84EDA6
:10091000010AD5ED021A9FED300AC4ED021A84EDEA
:10092000048AD5ED020A20EE881A84ED031AD5ED6B
:10093000040AC0FE800AC4ED050AD5ED050AC4ED1F
:10094000060AD5ED060AC4ED070AD5ED070AC0FE72
:10095000800AC4ED080AD5ED080AF5EEC00AF1EEEA
:1009600010FA01DCF7EE000AC4ED090AD5ED090A18
:100970004FF07E51F5EEC00AF1EE10FA03DD10EEF5
:10098000900A884201DBF6EE000AC4ED0A0AD5EDB2
:100990000A0AF5EEC00AF1EE10FA03DD10EE900A35
:1009A000884201DBF5EE000AF0EE002AC4ED0C1AD5
:1009B000C4ED0B0A61EE220A21EE012A0020C4EDEB
:1009C0000D0A84ED0E2A84ED0F0A84ED100A84EDE1
:1009D000110A84ED120A87E7000000009FED021A59
:1009E000F0EE411A00F002B80000000010B504005B
:1009F000B0EE412A0FD084ED0F0AC4ED101AC4EDF9
:100A0000110A94ED071AD4ED060AB0EE420A0AF074
:100A10006BFD84ED120A10BD10B5040013D0D4EDA7
:100A2000051AF5EEC01AF1EE10FA0FDD94ED111A69
:100A300094ED002A30EE410A21EE800A00EE021AFF
:100A400084ED111A04E09FED330A10BD84ED110A04
:100A500094ED0F1AD4ED101AD4ED0D3A31EE600A70
:100A600094ED123A43EEC01A94EC022A42EE831A35
:100A700002EE211A84ED0F1A94ED091AD4ED0B0A37
:100A80000AF042FD94ED0E2AB0EE401AD4ED100AA1
:100A9000B1EE422AD4ED001A21EE021A94ED110AA9
:100AA000D4ED0F2A41EE810A30EE620AC4ED100A3D
:100AB00094ED091AD4ED0A0A0AF026FDD4ED0C0AC9
:100AC000D4ED101A94ED011A20EE200AD4ED080A94
:100AD00070EE611AF5EEC00AF1EE10FA81EE810AAD
:100AE0000FDD94ED121AD4ED001A30EE410A20EE1B
:100AF000A11A60EEE10A0AF0F7FCD4ED120A30EE1A
:100B0000800A94ED071AD4ED060A0AF0EDFC84ED94
:100B1000120A10BD0000000010B5040017D094EDBB
:100B2000210A84ED220AD4ED200A94ED1F0AFFF772
:100B300073FFD4ED220A84ED210A204630EE600ACC
:100B400084ED230A0AF066FD94ED210A10BD9FEDA5
:100B5000010A10BD0000000010B504002DED048B4B
:100B6000B0EE418AF0EE608AB0EE409A1ED094ED6D
:100B7000010AB0EE481AF0EE680A60EE481AB0EECC
:100B8000490AFFF733FFC4ED1F8A84ED209A9FEDD9
:100B9000090A84ED218A84ED228A84ED230A204605
:100BA000BDEC048BBDE810400AF034BDBDEC048BF5
:100BB00010BD00000000000070B504001ED0E9B1B7
:100BC00004F14C0005460AF0CDFC002815D1294659
:100BD0002046FFF75FFE00280FD19FED0A0A84ED43
:100BE0001F0A84ED200A84ED210A84ED220A84ED97
:100BF000230A84ED240A84ED250A70BD4FF0FF30EE
:100C000070BD00000000000010B504002DED028B47
:100C1000F0EE608AB0EE408A18D0F0EE680AB0EECE
:100C2000480AFFF7DBFE9FED0B1AC4ED1F8A84ED27
:100C3000208A84ED211A84ED221A84ED231A20469D
:100C4000BDEC028BBDE810400AF0E4BCBDEC028BA9
:100C500010BD000000000000002801D080ED200A37
:100C60007047002801D080ED1F0A7047034800211B
:100C700001728180C18000F013B80000606600241A
:100C800070B5064C0546207A08B100F009F82560D9
:100C90000020A0800121E080217270BD60660024E8
:100CA0000548042110B505F067F9044800210172D8
:100CB0008180C18010BD000078150024606600248A
:100CC00070B5284C207A00281ED020680025052801
:100CD00019D2DFE800F00305080B0E0022480AE0F5
:100CE0002148143007E02048203004E01E48383006
:100CF00001E01D484C3030B1A18800EB8100006854
:100D0000060C02D004E0257270BD0104090C06D067
:100D1000E188491C89B2E180012904D015E0BDE8D1
:100D20007040FFF7BDBF00041049000C15D0B1FBA7
:100D3000F0F10F4A1368481ED8624908D060106865
:100D400081630421104605F091F8E088B042DBD3BE
:100D5000A088401CA080E58070BD0548042105F0F6
:100D60000BF9F2E7606600242848010840420F00B2
:100D700078150024FEE700007CB5040A160A8DF8F9
:100D800000400D0A8DF804601C0A8DF801008DF8F2
:100D900005206A468DF802508DF8064005488DF80A
:100DA000031040F2FF118DF8073008230AF04CFEC3
:100DB0007CBD0000981000242DE9F047F0EE413A88
:100DC000F0EE602AB0EE613A9FED291ADFED290AB4
:100DD0000D46824610200DF066FAB3EE0E1AFBEEB9
:100DE0000E0AB0EE620A04460C200DF05CFADFED4C
:100DF000232A9FED211AB0EE630AF0EE620A034641
:100E00000C200DF050FAB1EE041AF0EE620AB0EECA
:100E1000430A02460C200DF046FAB2EE041AFAEE2E
:100E2000040AB0EE420A06460C200DF03CFA0746D2
:100E300018011B0931094FEA061C114E4FEA14290B
:100E400040EA122850464CEA172C86F8009074703D
:100E5000B370082386F803803271324671712946D7
:100E600086F806C0F771BDE8F0470AF0EDBD000056
:100E7000DA0F4941DA0F49C10000FA4300000000CF
:100E8000600200240020704710B5EFF3108072B6A6
:100E90000022054901234A808A800B7000B962B69E
:100EA00012F090FC002010BD0A03002410B5EFF3EF
:100EB000108072B600220A4901234A808A800B7092
:100EC00000B962B612F07EFC06490022064808F01E
:100ED00081FC0649044808F070FC002010BD0000A9
:100EE0000A030024C09A0024E48D0024C092002448
:100EF00010B5044619B1096809B112F0F5FB0448B0
:100F0000214608F05AFC024808F030FC002010BDD1
:100F1000E48D002470B572B60C4CA08880B1A58811
:100F200012F082FCC0F50060A84200DA0546A8B2C3
:100F30004FF40071884200D90846A188081AA080A1
:100F400062B611F013FF002070BD00000A030024F8
:100F50000A460C4910B591F89C32032B07D1D1F801
:100F6000BC1221B1D1F8141219B1012010BD032017
:100F700010BD0146034808F02DFCBDE810400148B3
:100F800008F09EBCE48D00240E4A5FF0000130B5ED
:100F900001EBC10400EB810302EB840402EB810549
:100FA000491CA4690429B4F9024000EE104AB8EEC5
:100FB000C00A83ED080A95ED360A83ED0C0AE7D3E3
:100FC00030BD0000B4690024704770477047704717
:100FD000704770477047704770477047294A0168EB
:100FE00091423AD0274A1832914236D0254A3032BF
:100FF000914232D0234A483291422ED0214A603267
:1010000091422AD01F4A7832914226D01D4A90320E
:10101000914222D01B4AA83291421ED01A4A9142D4
:101020001BD0194A1832914217D0174A30329142D8
:1010300013D0154A483291420FD0134A6032914280
:101040000BD0114A7832914207D00F4A9032914228
:1010500003D00D4AA832914211D1CAB21823103AD6
:10106000B2FBF3F26FF30901032A02F00703074A08
:10107000D25C026600D9091DC1650846704721F09F
:10108000FF01F9E710000240100402408C470108FC
:1010900030B5224A012301689142CAB21BD01F4CCD
:1010A0001434A14217D01D4C2834A14213D01B4C3C
:1010B0003C34A1420FD0194C5034A1420BD0174CF4
:1010C0006434A14207D0154C7834A14203D0134CAC
:1010D0008C34A1420CD11421114C083AB2FBF1F12D
:1010E0000F4A803201F01F0504EB8101AB4010E094
:1010F0000C4D1824103A0D44B2FBF4F1A82D00D881
:101100000831094A01F01F0402EB8101064AA3409D
:101110008032643080E80E0030BD00000854025870
:1011200000580258F0FBFDBF0008024010B50279DC
:10113000531E072B2DD8174C0168A1421BD0154C0C
:101140001434A14217D0134C2834A14213D0114CAF
:101150003C34A1420FD00F4C5034A1420BD00D4C67
:101160006434A14207D00B4C7834A14203D0094C1F
:101170008C34A14203D10849074C443102E00749AD
:10118000064C443104EB8202C0E91C210121994044
:10119000816710BD08540258FC580258FC080240F0
:1011A00010B583694FF0C074826A0146002053B1C4
:1011B000B3F5005F15D072B1012A0CD0022A0AD013
:1011C000032A09D104E01AB1012A06D0022A03D168
:1011D000C96AC90100D5012010BDC96AA142FAD06F
:1011E00010BD002AF7D0012AF2D0022AF3D0032A38
:1011F000F3D010BD2DE9F04F804E804FDFF8FC9109
:101200001836DFF8F8A148370468C56D0AF1300ACE
:10121000DFF8ECB14C45DFF8ECC1DFF8ECE16DD064
:10122000B4426BD0544569D0BC4267D0DFF8D0815E
:10123000A8F11808444561D05C455FD064455DD095
:1012400074455BD0DFF8C481444557D0DFF8BC81DA
:1012500008F11808444551D0DFF8B08108F1300892
:1012600044454BD0DFF8A48108F14808444545D0F7
:10127000DFF8988108F1600844453FD0DFF88C81A1
:1012800008F17808444539D0DFF8808108F19008EA
:10129000444533D0DFF8748108F1A80844452DD0C7
:1012A000DFF86C81444529D0DFF8648108F1140827
:1012B000444523D0DFF8588108F1280844451DD063
:1012C000DFF84C8108F13C08444517D0DFF8408135
:1012D00008F15008444511D0DFF8348108F1640862
:1012E00044450BD0DFF8288108F17808444505D043
:1012F000DFF81C8108F18C08444509D1D0E91A486F
:10130000C4F80480046F1CB1D0E91D48C4F80480FF
:1013100004684C452ED0B4422CD054452AD0BC424F
:1013200028D0374E183EB44224D05C4522D06445C4
:1013300020D074451ED0354EB4421BD0334E1836E3
:10134000B44217D0314E3036B44213D02F4E483607
:10135000B4420FD02D4E6036B4420BD02B4E7836AF
:10136000B44207D0294E9036B44203D0274EA83657
:10137000B44215D190F860603F2406F01F06B440D7
:10138000AC600468256825F4802525602EE09A600D
:101390000068C160BDE8F08F99600068C260F9E73D
:1013A0001B4EB4421BD01A4E1436B44217D0184EFE
:1013B0002836B44213D0164E3C36B4420FD0144EE9
:1013C0005036B4420BD0124E6436B44207D0104EA1
:1013D0007836B44203D00E4E8C36B442DAD190F84F
:1013E0006060012406F01F06B4406C60046863600E
:1013F0008368402B0368CFD1C9E70000100002408A
:1014000088000240A0000240B800024010040240E0
:1014100008540258704772B6FEE70000014801F018
:1014200039B9000098100024014801F033B90000D8
:1014300098100024014801F02DB900004411002447
:10144000014801F027B9000044110024014801F0CF
:1014500021B90000F0110024014801F01BB900007F
:10146000F0110024F0B503684FF6FC716F4CC26BAD
:10147000D3F884508D4345EA8205C3F8845003684D
:1014800053F8845FB0F8406025F47F0545EA0645CF
:101490001D60036C664D9F180268D2F888308B433C
:1014A00043EA8703C2F88830026852F8883FB0F8F0
:1014B000446023F4FE0343EA06431360066856F8CB
:1014C000A03F426C8B4307EB420243EA8203336046
:1014D000076857F8A03FB0F8486023F4FE0343EADA
:1014E00006433B60D0E9123603FB06220368D3F8BB
:1014F000B0608E4346EA8206C3F8B0600368B0F875
:101500005060D3F8B07027F4FE0747EA0646C3F8E8
:10151000B060D0E91467036806FB0722D3F8AC601B
:101520008E4346EA8206C3F8AC60D0E916670368CA
:1015300006FB0722D3F8F0608E4346EA8206C3F822
:10154000F0600368B0F86060D3F8F07027F47C179F
:1015500047EA0646C3F8F0600368076E53F8C06FA9
:1015600002EB47028E4346EA820119600168B0F837
:101570006420D1F8C03023F47C1343EA0242C1F85E
:10158000C020016890F86820D1F8C03023F07C5367
:1015900043EA0262C1F8C020C16B04EB81014167DC
:1015A000026C01EB82028267436C02EBC302C267EA
:1015B000D0E91234634302EB8302C0F88020D0E903
:1015C0001434634302EB8302C0F88420D0E916345C
:1015D000634302EB8302C0F88820036E02EBC3036F
:1015E000C0F88C30446E026F544303EB8403C0F8A0
:1015F0009030846E544303EB8402C0F89820AA42D2
:101600000AD9D0F8A820032142F02002C0F8A8206F
:10161000C0F8A0100120F0BD002200E004C1D0F805
:1016200098308B42FAD80020F0BD000000AC00409A
:10163000FCD30040F0B58E680C69D1E9005744EA4C
:101640000604DFB145F080452C43066FD1E906C59D
:101650004F695E4391F8203045EA0C05B1F80CC0A3
:10166000D0F88CE0002047EA03630C4F1D430EEBDB
:10167000860345EA0C45E3E802450AE044EA85446E
:10168000E3E71418155C001DD4F8014045EA042472
:1016900010C3CC683C5D8442F3D8F0BD9447010888
:1016A000044A0021044810B50FF0C8FB0349086044
:1016B00010BD00008C480108A9FB0008B000002400
:1016C0002DE9F84F044601F0A5FC009034B1A06B61
:1016D000022806D08021A1650020E4E00120BDE8B9
:1016E000F88FC64DC54EC549183520683036DFF82D
:1016F0001083DFF810938842DFF80CA3DFF80CB3F7
:1017000028D0A84226D0B04224D0404522D0484517
:1017100020D050451ED058451CD0BC4A18329042AB
:1017200018D0BB4A904215D0B94A1832904211D015
:10173000B74A303290420DD0B54A4832904209D073
:10174000B34A6032904205D0B14A7832904201D01B
:10175000AF4A9032026822F001020260206888429B
:101760002ED0A8422CD0B0422AD0404528D048459F
:1017700026D0504524D0584522D0A44A1832904251
:101780001ED0A34A90421BD0A14A1832904217D0D3
:101790009F4A3032904213D09D4A483290420FD037
:1017A0009B4A603290420BD0994A7832904207D0DF
:1017B000974A9032904203D0954AA832904209D17C
:1017C000026822F01E0202602068426922F0800254
:1017D000426103E0026822F00E0202602768874936
:1017E00038468F424DD0A8424BD0B04249D04045F8
:1017F00047D0484545D0504543D0584541D083490E
:10180000183188423DD0824988423AD08049183107
:10181000884236D07E493031884232D07C494831C6
:1018200088422ED07A49603188422AD0784978316E
:10183000884226D076499031884222D07449A83116
:1018400088421ED0734988421BD0724914318842A5
:1018500017D070492831884213D06E493C318842F4
:101860000FD06C49503188420BD06A4964318842AC
:1018700007D068497831884203D066498C318F425D
:1018800013D1606E016821F4807101600DE000BF2A
:1018900001F0C0FB0099401A052806D92022A26554
:1018A00003210020A163606318E73868C007EFD107
:1018B000524A0121206890422ED0A8422CD0B0423A
:1018C0002AD0404528D0484526D0504524D05845F8
:1018D00022D04E4B183398421ED04D4B98421BD00D
:1018E0004B4B1833984217D0494B3033984213D0A2
:1018F000474B483398420FD0454B603398420BD04A
:10190000434B7833984207D0414B9033984203D0F1
:101910003F4BA833984208D194F860703F23E06DA4
:1019200007F01F07BB40836007E094F86030E06D6C
:1019300003F01F0301FA03F34360206890424DD087
:10194000A8424BD0B04249D0404547D0484545D049
:10195000504543D0584541D02C4A183290423DD092
:101960002B4A90423AD02A4A1832904236D0284A1E
:101970003032904232D0264A483290422ED0244A09
:10198000603290422AD0224A7832904226D0204AB1
:101990009032904222D01E4AA83290421ED01D4A58
:1019A00090421BD01B4A1432904217D0194A283259
:1019B000904213D0174A3C3290420FD0154A503211
:1019C00090420BD0134A6432904207D0114A7832C9
:1019D000904203D00F4A8C3290420BD1D4E91A02C4
:1019E0004260206F30B1026822F480720260D4E954
:1019F0001D0242600020A163606370E61000024097
:101A0000580002407000024088000240A0000240DE
:101A100010040240085402582DE9F05F20B1816B98
:101A2000022904D0802181650120BDE8F09F754A1C
:101A3000744BDFF8D0C1183201683033724CDFF8D4
:101A4000CCB16145724D734E734FDFF8D0E1DFF8D2
:101A5000D0A1DFF8D09131D091422FD099422DD032
:101A6000A1422BD0594529D0A94227D0B14225D037
:101A7000B94223D0DFF8A481A8F1780841451DD0F0
:101A8000DFF89881A8F16008414517D0DFF88C8114
:101A9000A8F14808414511D0DFF88081A8F130084D
:101AA00041450BD0DFF87481A8F11808414505D0F5
:101AB000714503D0514501D049452AD14FF0040862
:101AC000C0F8388061451FD091421DD099421BD08B
:101AD000A14219D0594517D0A94215D0B14213D00F
:101AE000B94211D04D48783881420DD04B4860380A
:101AF000814209D049484838814205D047483038AA
:101B0000814201D045481838086820F0010008607B
:101B100076E0D1F8008028F00108C1F80080016863
:101B2000D1F8008028F00E08C1F8008001686145F6
:101B300046D0914244D0994242D0A14240D059452A
:101B40003ED0A9423CD0B1423AD0B94238D0334A13
:101B5000783A914234D0314A603A914230D02F4A9B
:101B6000483A91422CD02D4A303A914228D02B4A03
:101B7000183A914224D0714522D0514520D0494590
:101B80001ED0294A91421BD0274A1432914217D0C5
:101B9000254A2832914213D0234A3C3291420FD039
:101BA000214A503291420BD01F4A6432914207D0F1
:101BB0001D4A7832914203D01B4A8C32914218D18F
:101BC000426E0121136823F48073136090F8603033
:101BD000C26D03F01F0399405160D0E91A124A60A8
:101BE000016F31B10A6822F480720A60D0E91D12D7
:101BF0004A600122416D00238263436301B188473B
:101C0000002012E71000024058000240700002401D
:101C100088000240A0000240B80002408804024050
:101C2000A0040240B8040240085402582DE9F05FB5
:101C3000044601F0EFF9002C07467BD0DE4E02216E
:101C400020684FF00308DFF874934FF00005DFF8C9
:101C500070A3B042DFF86CB334D0D74A1832904248
:101C600030D048452ED050452CD058452AD0D54AA2
:101C70001832904226D0D34A3032904222D0D14AF4
:101C8000483290421ED0D04A90421BD0CE4A1832E1
:101C9000904217D0CC4A3032904213D0CA4A4832D0
:101CA00090420FD0C84A603290420BD0C64A783278
:101CB000904207D0C44A9032904203D0C24AA83220
:101CC00090427CD1A163B04265632ED0BA491831ED
:101CD00088422AD0484528D0504526D0584524D09F
:101CE000B8491831884220D0B649303188421CD0DA
:101CF000B4494831884218D0B349884215D0B24916
:101D00001831884211D0B049303188420DD0AE49E7
:101D10004831884209D0AC496031884205D0AA498F
:101D20007831884201D0A8499031016821F0010141
:101D3000016008E021E100BF01F06CF9C01B05283B
:101D400001D9202116E120680068C007F4D1D4E948
:101D500002032168103418438E4694E88410D4E9B5
:101D6000033809683A431043984A40EA0C0067690F
:101D700018431140103C40EA0800042F40EA0100DB
:101D800003D1D4E90B12114308436168A1F1290280
:101D9000052A0BD9163A032A08D9083A012A05D987
:101DA000083A032A02D97439032901D840F4801073
:101DB000CEF800002068676A4069042F00E01EE04A
:101DC00020F0070047EA00070CD1D4E90A010743D5
:101DD00041B12046FFF7E4F920B14020A065012180
:101DE000A163CAE0206847612046FFF7F7F894F83E
:101DF00060203F2102F01F029140816052E0744A4E
:101E000090421BD0724B1433984217D0704B28333A
:101E1000984213D06E4B3C3398420FD06C4B5033EA
:101E200098420BD06A4B6433984207D0684B7833A2
:101E3000984203D0664B8C3398427DD1A163656391
:101E4000644B0168A26801EA030E402A75D0802A1B
:101E500074D00022D4E90378D4E9053142EAD702EC
:101E600042EAD8085A4AD4E9077C48EAD30848EA43
:101E7000D10141EAD701524241EA1C11142341EA3F
:101E80000E01016020681044B0FBF3F08000206672
:101E90002046FFF7A3F894F86020012102F01F020A
:101EA000914041602068B04257D043491831884280
:101EB00053D0484551D050454FD058454DD0414959
:101EC0001831884249D03F493031884245D03D4998
:101ED0004831884241D03C4988423ED03A49183185
:101EE00088423AD038493031884236D03649483174
:101EF000884232D03449603188422ED0324978311C
:101F000088422AD030499031884226D02E49A831C3
:101F1000884222D02E4988421FD02D491431884250
:101F20001BD02B492831884217D029493C3188429F
:101F300013D02749503102E01BE015E016E088423B
:101F40000BD023496431884207D021497831884237
:101F500003D01F498C31884229D12046FFF798F8D9
:101F6000A06880280CD00CE0102273E74FF4804268
:101F700070E74021A165C4F838800120BDE8F09FDA
:101F80006560616E20790860D4E91A01416060687B
:101F9000401E072808D82046FFF7C8F8206F0560C4
:101FA000D4E91D01416002E025676567A56701204E
:101FB000A565A0630020E1E7100002404000024058
:101FC0005800024070000240100402403F8010FEA2
:101FD000085402580F00FEFF2DE9F84F04008C460C
:101FE0004FF00000009010D0606B01280FD0A56B5F
:101FF000012000216063012D0BD0C002A0650120EB
:10200000009061630098BDE8F88F0120FBE7022093
:10201000F9E78C4D02262068A663A8428A4DA16587
:102020008A4E8B4FDFF82C82DFF82C92DFF82CA23F
:10203000DFF82CB226D0A84224D0B04222D0B84239
:1020400020D040451ED048451CD050451AD0584598
:1020500018D08449884215D082491831884211D05D
:102060008049303188420DD07E494831884209D0BC
:102070007C496031884205D07A497831884201D064
:1020800078499031016821F00101016061462046E4
:10209000FFF7B0F86B49206888422CD0A8422AD0BC
:1020A000B04228D0B84226D0404524D0484522D05E
:1020B000504520D058451ED06A4A90421BD0694AEC
:1020C0001832904217D0674A3032904213D0654A96
:1020D000483290420FD0634A603290420BD0614A3E
:1020E0007832904207D05F4A9032904203D05D4AE6
:1020F000A83290420CD1026822F01E0242F0160271
:102100000260606C88B12068026842F008020BE04F
:10211000026822F00E0242F00A020260606C20B1F6
:102120002068026842F004020260206888424BD0B6
:10213000A84249D0B04247D0B84245D0404543D0EC
:10214000484541D050453FD058453DD0454A904242
:102150003AD0444A1832904236D0424A3032904205
:1021600032D0404A483290422ED03E4A60329042AD
:102170002AD03C4A7832904226D03A4A9032904255
:1021800022D0384AA83290421ED0374A90421BD003
:10219000354A1432904217D0334A2832904213D035
:1021A000314A3C3290420FD02F4A503290420BD0ED
:1021B0002D4A6432904207D02B4A7832904203D0A5
:1021C000294A8C3290420DD1606E0268D20303D549
:1021D000026842F480720260206F18B1026842F413
:1021E000807202602068884226D0A84224D0B04283
:1021F00022D0B84220D040451ED048451CD0504582
:102200001AD0584518D01749884215D015491831A9
:10221000884211D01349303188420DD011494831DC
:10222000884209D00F496031884205D00D49783184
:10223000884201D00B499031016841F001010160F1
:10224000E0E600001000024028000240400002408A
:10225000580002407000024088000240A000024086
:10226000B8000240100402400854025870B50446F9
:1022700000F0D0FE0546601C02D0044840680444CB
:1022800000F0C8FE401BA042FAD370BD0800002435
:1022900010B5D0F8A030012B09D0022B07D0D0F810
:1022A000A81041F00201C0F8A810012010BD036879
:1022B0009C6D0C4203D1DC6D44F0010404E09C6D84
:1022C00031EA04041FD00324DC658B0505D50368BF
:1022D000D3F8E0401443C3F8E0404B0505D503684C
:1022E000D3F8E4401443C3F8E4400068084A01EA24
:1022F0000203446D074A1C434465106840EA91702C
:102300001060002010BDDC6D44F00204DCE700002A
:10231000FFFFCF3F14A8004070B50446D0F8A000DE
:10232000022804D0D4F8A80040F008000DE020688E
:10233000D0F8C03013F07C5F0BD0D0F8C4309B02D3
:102340000CD5D4F8A80040F40070C4F8A80001200F
:1023500070BDD4F8A80040F02000F6E7D0F8C40023
:10236000C0F3044520462B46FFF764F9216801209D
:10237000A840C1F8D000C4F89C00002070BD704790
:10238000D0F8A030012B07D0D0F8A81041F00401FC
:10239000C0F8A8100120704761B10068012913D06E
:1023A000D0F8B01021F0FE4141EA0261C0F8B0104F
:1023B000002070470068D0F8F01021F07C5141EA0D
:1023C0000261C0F8F010F3E7D0F8A01021F0FE4150
:1023D00041EA0261C0F8A010EAE770B5D0F8A02089
:1023E000012A09D0022A07D0D0F8A81041F0020132
:1023F000C0F8A810012070BD0B68CA6883B10B69D2
:10240000072A43EA427325D00C7A4A6942EA847269
:102410004968806F00EBC100C0E90032002070BD48
:10242000072A0DD00C7AD6060D8A4B6943EA8472CE
:1024300046EA0543406F49681A4340F82120EDE71A
:102440000B8A4FF06055D1E9062442EA034245EA7F
:102450000423EFE78A69DBE730B5D0F8A050039C8E
:10246000012D07D0D0F8A81041F00401C0F8A81041
:10247000012030BD0D01016845EA820040EA4300B9
:102480002043C1F88000002030BD0000134910B582
:10249000884222D100F027F811490022C301CA6006
:1024A00003D5CA6842F00102CA60020203D5CA68B5
:1024B00042F00202CA60820103D5CA6842F00402F7
:1024C000CA60020103D5CA6842F00802CA60C000AF
:1024D00003D5C86840F01000C86010BD98100024F3
:1024E000340200247047D0F8A8007047F0B5D0F847
:1024F000A0500024022D04D0D0F8A81041F008010B
:1025000030E0402905D0412930D0856D8D4220D959
:102510004EE00568D5F8A04014F4FE0F19D0D5F8A8
:10252000A44064061AD0D5F8A440D5F8A460C4F33A
:102530000524F6010AD5D5F8A06016F0004F05D5A0
:10254000D5F8A050641CC5F306452C40C66FC56C79
:102550002CE0D0F8A81041F0200103E0D0F8A8103A
:1025600041F48071C0F8A8100120F0BD0568D5F8CD
:10257000B04014F4FE0FECD0D5F8B4406406EDD0B2
:10258000D5F8B440D5F8B460C4F30524F6010AD5F3
:10259000D5F8B06016F0004F05D5D5F8B050641CE2
:1025A000C5F306452C40D0F88060456D654303E0D7
:1025B000C56DD0F884604D4306EB85052E6816F096
:1025C000804656602E6836D026F060461660D5F8F4
:1025D00000C000262D4F0CF0005CC2F808C0D5F8F2
:1025E00000C00CF0004CC2F810C0B5F804C01FFACF
:1025F0008CFCC2F81CC0D5F804C0CCF3034CC2F864
:102600000CC0D5F804C00CF4801CC2F814C0D5F876
:1026100004C00CF4001CC2F818C0D5F804C0CCF3F8
:10262000066CC2F820C0D5F804C008354FEADC7C3F
:10263000C2F824C007E0C6F38A46C7E715F806C00B
:1026400003F806C0761CD2F80CC017F80CC0B445CD
:10265000F4D840290AD041290CD020294FF001029A
:102660000CD200688A40C0F898200DE00068C0F8DD
:10267000A84009E00068C0F8B84005E0006801F033
:102680001F018A40C0F89C200020F0BD944701083B
:10269000704700002DE9FF5FDFF80CB304460BF133
:1026A0000401DBF8000025680F68AA468007D5F80A
:1026B0005090696DD5F850806E6D2A6DD5F854C074
:1026C0002B6D00EA8770009009F470496F6D286DDA
:1026D00001EA09010191DAF85410DAF85490DAF8B5
:1026E000505008F00F0806EA0806029602F0F002C1
:1026F00003F071536FEA09061F4000F060700CEAA6
:10270000020CCDF80CC0F20501EA00090CD4E84334
:10271000C00509D400214FF48073CAF85030CBF8BB
:1027200000102046FFF7B4FF700512D4E8434005BF
:102730000FD4206800234FF48068D0F8DC20D0F854
:10274000E410C0F85080CBF800301140204600F073
:1027500044FBDFF858A2009850B12268830F00EACA
:102760000A001065CBF8003020460099FFF707FEFD
:10277000019850B12268830F00EA0A001065CBF877
:1027800000302046019900F02AFB029850B12268DF
:10279000830F00EA0A001065CBF80030204602994A
:1027A00000F0E4FA039850B12268830F00EA0A00AF
:1027B0001065CBF800302046039900F0E7FA3005A9
:1027C0000CD4E843000509D4236800204FF40062CC
:1027D0001A65CBF80000204600F002FBB00512D4C9
:1027E000E84380050FD4206800234FF40078D0F828
:1027F000D820D0F8E010C0F85080CBF8003011405D
:10280000204600F0EBFA30030CD4E843000309D46F
:10281000236800204FF400221A65CBF80000204600
:1028200000F0A2FAF0030CD4E843C00309D42368F3
:1028300000204FF480321A65CBF80000204600F0EB
:10284000CBFA70030CD4E843400309D4226800207B
:102850004FF480231365CBF80000204600F0BBFA4C
:10286000B0030FD4E84380030CD4236800204FF456
:1028700000321A65CBF80000D4F8A80040F08000C0
:10288000C4F8A800B9F1000F0BD022684FEA997381
:1028900009EA0A001065CBF8003049462046FFF7E8
:1028A00021FE5FB12268BB0F07EA0A001065CBF872
:1028B0000030D4F8A8003843C4F8A8003C49206888
:1028C000884268D1606881468068800763D0D9F803
:1028D0002060D9F82410D9F82080D9F82400D9F83C
:1028E00020C0D9F82470D9F82030D9F82450D9F86C
:1028F000202003F4FC4306F00F0AD9F824601D40A1
:10290000D9F824B008F030080CF4C07C02F4F022AE
:1029100011EA0A0100EA080807EA0C0706EA0206BB
:10292000D9F820A004D0C9F82010204600F050FAB1
:10293000B8F1000005D0616808624146204600F009
:1029400049FA6FEA0B0040060ED46FEA0A0040060F
:102950000AD460684021C36BC26B01622046190C27
:1029600002F03F0200F035FA2FB160680762394685
:10297000204600F02CFA35B160680562D4F8A80052
:102980002843C4F8A80036B160680662D4F8A800ED
:102990003043C4F8A800D4F8A800002802D020468C
:1029A000FFF774FDBDE8FF9F10A80040FFFFCF3F79
:1029B00000A000402DE9F04194B08E494C2204461D
:1029C0006846FDF766FE64B18B4D2068A84202D1CF
:1029D00000F580706060D4F8A0004FF0000820B1CE
:1029E00008E0012014B0BDE8F0812046C4F8A480BE
:1029F00000F004F92068816921F01001816100F084
:102A000009FB0327064604E000F004FB801B0A28AC
:102A100011D8206880690007F6D42068816941F0E8
:102A20000101816100F0F6FA06460DE000F0F2FACD
:102A3000801B0A2808D9D4F8A80040F00100C4F887
:102A4000A800C4F8A070CCE720688069C007EDD06A
:102A50002068816941F002018161206901282068B4
:102A6000816937D041F040018161606901282068A7
:102A7000816932D021F480418161A06901282068F8
:102A800081692DD041F4805181612068A2688169FB
:102A900021F44071114381612068816921F0A40112
:102AA00081612068016921F010010161E06801285D
:102AB00019D010B302281BD02068816941F0800131
:102AC00081612068016941F010010161E06803281B
:102AD0000ED012E021F04001C6E741F48041CBE77F
:102AE00021F48051D0E72068816941F0040103E0BE
:102AF0002068816941F02001816194F820006FF025
:102B0000FF02D4E90973A68B1102400602EB0727E6
:102B1000A0F10070384327685B1E184301EB06469E
:102B20003043F861A068B0F5407F11D104F1300066
:102B3000A68D6FF00F0C89C801EB0641401E02EB19
:102B40000322104322680CEB071318430843D0609C
:102B5000A06E30B12068E26ED0F8C0101143C0F80A
:102B6000C010D4E919126846D14209D02168236FF8
:102B700051F8C82F50F8233022F007021A430A6098
:102B8000A16C49B12168E26C51F8BC3F50F8226059
:102B900023F0070232430A60216D51B12168636D51
:102BA00051F8BC2F50F8233022F0700242EA031291
:102BB0000A60A16D51B12168E26D51F8BC3F50F837
:102BC000220023F4E06242EA002008602068A84264
:102BD00004D16068816821F003018160C4F89C80A1
:102BE0000121C4F8A880C4F8A0102046FEF73AFCE2
:102BF000F8E60000A447010800A00040F0B587B047
:102C0000054614216846FDF7A0FD514E00244F4BA8
:102C100002272D684FF0090CDFF838E10C3B3168D2
:102C20004A4A75454C4801F101012AD10129316018
:102C300007D1116841F480711160116801F480714D
:102C40000591196841F008011960196801F008013F
:102C5000059103210091CDE90174CDE9034C69464A
:102C600000F0C0F800220521132000F071FA1320B3
:102C700000F060FA00220521152000F069FA152005
:102C80002EE0DFF8D8E075452ED10129316007D15B
:102C9000106840F480701060106800F48070059037
:102CA000186840F0020018601868694600F00200D9
:102CB000059060200090CDE901742948CDE9034CCE
:102CC00000F090F800220521142000F041FA1420B1
:102CD00000F030FA00220521162000F039FA162003
:102CE00000F028FA07B0F0BDDFF878C06545F9D1EB
:102CF0000129316007D1116841F4807111601168B8
:102D000001F480710591196841F008011960196892
:102D1000052201F0080105914FF440510091CDE9E1
:102D20000174CDE90342694600F05CF800220521F8
:102D30009F2000F00DFA9F2000F0FCF900220521F1
:102D4000A02000F005FAA020CAE70000EC440258D9
:102D50000400002400A00040000C025800A4004021
:102D60000004025800D40040704700000549884222
:102D700001D10BF065B80449884201D10BF0FCB8D1
:102D80007047000098100024F01100240249884286
:102D900001D10BF0CBB8704744110024D0F8A0103B
:102DA000012907D0D0F8A81041F00401C0F8A810FC
:102DB000012070470221C0F8A010002201688B6931
:102DC00023F001038B61C0F8A820104670477047BC
:102DD000704770477047704770477047704770473B
:102DE000704700002DE9F84F03247C4D00234FF07D
:102DF00001094FF0B04B4FF00F0AE7E009FA03F674
:102E000032407BD00F7907F00307012F01D0022F4A
:102E10001AD187684FEA430ED1F80CC004FA0EF8B5
:102E200027EA08070CFA0EFC4CEA070CC0F808C0A9
:102E3000476891F804C0B743CCF3001C0CFA03FCBC
:102E40004CEA070CC0F804C00E79F643B60702D16D
:102E50008E68012E0BD0C7684FEA43088E6804FACB
:102E600008FC27EA0C0706FA08F63E43C6600E790E
:102E700006F00306022E12D1DE080F694FEA437CEA
:102E800000EB8606B646366A4FEADC6C0AFA0CF8A6
:102E900007FA0CF726EA08063743CEF820700F79B8
:102EA00006684FEA430807F0030704FA08FC07FA2C
:102EB00008F726EA0C06374307604E6816F4403FD1
:102EC0001CD0474E376847F00207376036689F07C7
:102ED00006F00206009623F0030606F1B046B64659
:102EE0003F0FD6F80864DFF8FC800AFA07FC40457B
:102EF00026EA0C0603D14FF0000C3AE065E0DFF85B
:102F0000E8C0604502D14FF0010C32E0DFF8DCC0D0
:102F1000604502D14FF0020C2BE0DFF8D4C06045D1
:102F200002D14FF0030C24E0DFF8C8C0604502D1A5
:102F30004FF0040C1DE0DFF8C0C0604502D14FF037
:102F4000050C16E0DFF8B4C0604502D14FF0060C66
:102F50000FE0DFF8ACC0604502D14FF0070C08E08D
:102F6000DFF8A0C0604502D14FF0090C01E04FF03E
:102F70000A0C0CFA07FC4CEA060CCEF808C44F68A1
:102F8000DBF80060FF0226EA020600D516435F4622
:102F9000CBF80060D1F804C0DBF804605FEA8C2C49
:102FA00026EA020600D516437E606E684F6826EA60
:102FB0000206BF0300D516436E602E684F6826EAEE
:102FC0000206FF0300D516432E605B1C0A6832FA26
:102FD00003F67FF413AFBDE8F88F000080000058BF
:102FE000F444025800000258000402580008025835
:102FF000000C025800100258001402580018025821
:10300000001C0258002402580AB18161704709046B
:10301000FBE70000014880687047000008000024BA
:1030200002488168426811448160704708000024AA
:10303000032010B500F0ACF801F030FE0F4A104943
:1030400014681368C4F3032203F00F038A5CC95C9D
:1030500002F01F0201F01F01D0400A4A20FA01F1DC
:103060001160094908600F2000F010F808B1012034
:1030700010BD00F04DF8002010BD000018440258AB
:1030800018480108180000241400002410B5102866
:1030900004468AB02AD200220146A12000F058F846
:1030A000A12000F047F8154804601548016841F078
:1030B00080710160006808A900F08070099068467E
:1030C00001F078FD01F0D8FD0E49400000220E4CC1
:1030D000B0FBF1F10D4840F2E7330460C0E9033280
:1030E000491EC0E9011202F00DFC10B101200AB026
:1030F00010BD064802F05CFCF9E70000080000245F
:10310000EC44025840420F0000E000401C1D002427
:10311000074882B0016841F00201016000680022A6
:103120000F2100F002000090901E02B000F010B8D5
:10313000F4440258002809DB410900F01F0289000D
:10314000012001F1E0219040C1F80001704700002A
:103150000E4BF0B41B680D46C3F30223C3F1070600
:10316000042E00D90426191D072901D2002300E0EE
:10317000DB1E012404FA06F19C40491E2940641E0E
:10318000994014402143F0BC07F0E5B90CED00E094
:10319000064900F0070210B54FF6FF040868044B1B
:1031A000204040EA02201843086010BD0CED00E00A
:1031B0000000FA052DE9F04F02688346FF484FF002
:1031C000000A8DB00C468242564602D100250120ED
:1031D00001E001250020E8460027814607EB470172
:1031E0007F1C08EBC101F8B204F0A4FA20B108205A
:1031F0004FF0010ACBF85400FFB2022FEED3BAF120
:10320000000F7CD1DFF8B4E3DEF80000C00707D080
:10321000DEF8001046F0010621F00101CEF80010A2
:10322000E7480068C00706D0E54846F00206016896
:1032300021F00101016005EB45030C93E148424692
:1032400008EBC303DFF880B30121DC469F6800EB85
:103250008707D7F8008428F48078C7F80084DBF863
:103260000070FF0732D0DCF80070B9F1010F27F0D1
:103270000107CCF800705CD1069B00EB8303D3F808
:10328000007447F00207C3F80074079B3BB100EBE2
:103290008303D3F8007447F02007C3F80074099B38
:1032A0004BB121EA030300EB8303D3F8047447F422
:1032B0008027C3F804740A9BDBB321EA030700EB01
:1032C0008703D3F8047447F0806730E00C9F52F80E
:1032D000377077B300EB8707D7F800C42CF0010CE8
:1032E000C7F800C45F683FB100EB8707D7F800C498
:1032F0002CF0100CC7F800C4D3F80CC000E06AE151
:10330000BCF1000F09D021EA0C0700EB8707D7F8C2
:1033100004C42CF4803CC7F804C41B694BB121EAF7
:10332000030700EB8703D3F8047427F08077C3F812
:10333000047409EB4903914622680C9259F83370E2
:10334000BA4221D009EBC302D4F808C0D2F80880F1
:10335000C44519D0D4F804C0D2F80480C44502D1C1
:10336000BCF1000F10D1D4F80CC0D2F80C80C445C9
:1033700002D1BCF1000F07D1D4F810C012699445F6
:1033800054D1BCF1000F51D00C9ABA4219D109EBBB
:10339000C302D4F804C0D2F80480C44511D1D4F8D3
:1033A0000CC0D2F80C80C4450BD1D4F810C01269FF
:1033B000944506D1DBF8003043F00103CBF8003030
:1033C00034E000EB870709EBC302D7F8003423F0A1
:1033D0000103C7F8003453683BB100EB8303D3F813
:1033E000007427F01007C3F80074936800EB8303A0
:1033F000D3F8007427F48077C3F80074D7684FB10E
:1034000021EA070300EB8303D3F8047427F4803721
:10341000C3F8047412694AB121EA020300EB830283
:10342000D2F8043423F08073C2F80434A3685A46F7
:1034300000EB8303D3F8007427F4407747EA45276D
:1034400047F48077C3F80074DBF800C063695F1E3F
:10345000CCF3074C674508D95C4FD2F800C007EBA6
:1034600003472CF47F033B4313601268D2072268A2
:1034700000EB8202D2F800343FD023F003035B1C40
:10348000C2F8003462684AB100EB8202D2F800341C
:1034900023F0300343F01003C2F80034E268D30392
:1034A0000AD521EA020300EB8302D2F8043423F4A4
:1034B000E02343F480330AE05AB121EA020300EB2F
:1034C0008302D2F8043423F0E06343F08073C2F83F
:1034D00004342269D30307D5914300EB8100D0F86F
:1034E000041421F4E0214AE0F2B3914300EB81009F
:1034F000D0F8041421F0E0614EE001EB450723F021
:1035000003033B43C2F8003462685AB100EB820205
:10351000D2F8003423F0300343EA451343F010039C
:10352000C2F80034E268D3030CD521EA020300EBB1
:103530008302D2F8043423F4E02343EA854343F4BE
:1035400080330CE06AB121EA020300EB8302D2F877
:10355000043423F0E06343EA856343F08073C2F8E8
:1035600004342269D30300E01AE00BD5914300EB49
:103570008100D0F8041421F4E02141EA854141F4AE
:1035800040310BE062B1914300EB8100D0F80414AC
:1035900021F0E06141EA856141F04071C0F8041416
:1035A000F00705D0DEF8001041F00101CEF8001060
:1035B000B00710D5024801680AE000000050005230
:1035C00000A0005200B0005200B400520000FFFF03
:1035D00041F0010101600DB05046BDE8F08FF8B533
:1035E00016460D460446FFF715FD0746206D0228D6
:1035F00004D0142807D0242809D00DE0E068B0F1E9
:10360000806F0DD108E02868022809D002E0286800
:10361000012805D0032803D0102161650120F8BDE1
:1036200000223B4620212046009604F01BFA002889
:10363000F5D160652946204604F0EAF80028EED16D
:10364000A96B61B129680422A1B1012914D0022912
:10365000E5D1216D14290DD024212165F8BD012269
:103660003B4602212046009604F0FCF92268022124
:103670005162F8BD2265F8BD216D2429FAD01421CC
:10368000EBE70000F8B500250446FFF7C3FC06464B
:1036900024B100206065206D10B170E001256EE05E
:1036A000204600F073F841F28830A065258A6FF05B
:1036B000FF012268D4F814C00F02636B07EB0545C5
:1036C000E06801EB0C27D4F81CC0184393683D4315
:1036D0002D4F28433B4040EA0C001843906020687F
:1036E000236AC26822F4E0221A43C2602368228E51
:1036F000A06B40EA024018612268E06B5061D4E997
:103700000003026801EB032322F4F851194301601E
:10371000A06D0022202133460090204604F0A2F93B
:1037200005002CD12068626AC168521E21F0FF0199
:103730001143C1602068A268016821F04001114373
:1037400001602068D4E90A12D0F80831114323F04F
:10375000A0421143C0F808112068016841F001013E
:103760000160A069022804D12068816841F002014B
:103770008160E068B0F1806F03D0022020652846A8
:10378000F8BD0120FAE70000F4F8E0F82DE9F04375
:10379000B5B0044614216846FCF7D7FFB82106A847
:1037A000FCF7D3FF4749206888427DD1002019905B
:1037B0004FF000710446CDE9061006A800F02EFC7B
:1037C00008B1FDF728FE4048016841F4001101608E
:1037D000016801F400110591016841F400210160C4
:1037E000006800F40020059037480C30016841F073
:1037F00001010160016801F001010591016841F0DA
:1038000002010160016801F002010591016841F0C7
:1038100010010160016801F010010591016841F09B
:1038200008010160006802250927009500F00800E2
:10383000DFF89880032603966946CDE90470CDE948
:1038400001544046FFF7CEFA062102940820CDE944
:103850000361CDE9000569464046FFF7C3FA01213F
:10386000DFF86C9002AA4FF00408CDE90015694614
:10387000484682E85001FFF7B5FA02AA6946484671
:1038800082E8D000CDE90085FFF7ACFA0B211148A2
:103890004FF40068CDF80080CDE90361CDE9015413
:1038A0006946FFF79FFA00E008E002AA0A48694665
:1038B00082E8D000CDE90085FFF794FA35B0BDE885
:1038C000F083000000A00052D444025800000258C7
:1038D0000004025800100258000C02582DE9F84369
:1038E00015460E460446FFF795FB8046206800F11A
:1038F0005007816CD0F810213EB1236D042B06D007
:10390000102161650120BDE8F8830821F9E7036C07
:103910005B1CA364A36C63642664036823F04053B8
:1039200043F080530360E068B0F1806F206804D0FA
:10393000D0F8003113F4E06F01D0816401E0C0F8E9
:1039400010210122062143462046009504F08AF802
:103950000028D8D13878216C0870206C401C206475
:10396000A06C401EA064A06C0028EAD1012243464E
:1039700002212046009504F075F80028C3D1226882
:10398000022151622165BEE701680123C0F8DC34E1
:103990000022C0F8D0248869044A40F000608861A1
:1039A000486D104348650020704700000300001078
:1039B0000068416200207047F0B503685D6A39B164
:1039C0009F6A4C1E00204FF4827605EB17450BE0F2
:1039D00045EA0240986210E0471C06EB800053F86D
:1039E00000C0F8B205EB1C45A042F5D34FF480703F
:1039F00000EB810045EA02421A500020F0BD01F0C0
:103A00000F020B0670B502EBC20104464FF0010035
:103A10004FF0000504EB810102D54875143103E035
:103A200081F8555201F515710A70D4F89424012AD1
:103A300008D0C4F89404206806F0CAF90020C4F83D
:103A4000945470BD022070BD01F00F0101EBC10163
:103A500000EB8100D0F8680270472DE9F04101F0D9
:103A60000F0604460D064FF0010006EBC6014FF0AD
:103A7000000504EB810102D54875143103E081F89B
:103A8000555201F51571C2F30A024F780B718A6025
:103A90000E7007B14E83022B00D14D71D4F89424DF
:103AA000012A09D0C4F89404206806F0DDF82846FD
:103AB000C4F89454BDE8F0810220FBE770B501F032
:103AC0000F05002405EBC50100EB810101F518711C
:103AD00081E81C0001F80B4C01F80C5D8379012B87
:103AE00000D1CA618279006806F008FB002070BD31
:103AF00070B50D460179044605F00F00884201D9E2
:103B0000012070BD29064FF000064FF0010206D5D6
:103B100000EBC00104EB81014A75143107E005EBAD
:103B2000C50104EB810181F8556201F515718A70B8
:103B30000870D4F89404012807D0C4F894242068AD
:103B400006F0B0FA280702D007E0022070BDA17984
:103B500004F59462206806F079FA0020C4F89464B1
:103B600070BD70B501F00F04002504EBC4010126FF
:103B700000EB8101203181E82C0001F80B6C01F889
:103B80000C4D8379012B00D1CA618279006806F05F
:103B9000B5FA002070BDF8B5040004D0D4F898043C
:103BA000002510B106E00120F8BD2046C4F8945469
:103BB00000F058F80320C4F89804206806F040FA92
:103BC000207C8DF8000094E80F0006F08DF80226A6
:103BD000B0BB2068002106F0F1FB88BB0020012764
:103BE0000CE000EBC001421C04EB81014F750D7627
:103BF000CD610D624D620875C885D0B221798142D0
:103C0000EFD8002011E000EBC001421C04EB810161
:103C100081F8555281F85852C1F85C52C1F860528F
:103C2000C1F8645281F85402D0B221798142EAD8B5
:103C3000207C8DF8000094E80F0006F04BF910B1DD
:103C4000C4F89864AFE7207B6574C4F898740128C1
:103C500002D12046FFF798FE206806F02DF90020DB
:103C6000F8BD000010B5B0B00446B8216846FCF7B6
:103C70006CFD13492068884220D100204FF4802138
:103C80004FF440122192CDE90010684600F0C6F9C9
:103C900008B1FDF7C0FB00F063F80A48016841F085
:103CA0000071016000680022052100F000702E9074
:103CB0004D20FFF74DFA4D20FFF73CFA30B010BD14
:103CC00000000440D844025810B5D0F894140446BB
:103CD0000068012909D00121C4F89414C16849067B
:103CE00009D5617B012902D005E0022010BD816B5E
:103CF00041F480318163206806F020FB206806F0E3
:103D0000CDF80020C4F8940410BD0000134970B52C
:103D10000A68D243520705D5096801F007018142BC
:103D200013D118E00A6822F0070202430A60FFF785
:103D300071F90A4D4FF47A760446083D07E000BF5A
:103D4000FFF768F9001BB04201D9012070BD286857
:103D5000C0438004F4D4002070BD00000C48025819
:103D60000248016841F08071016070470C480258B8
:103D700010B500F04DFF05490968054AC1F302116D
:103D8000515C01F01F01C84010BD000020440258E2
:103D900018480108494930B5484C0B1D0A681434CD
:103DA00009681D68246802F00303C5F30012C1F31B
:103DB0000531C4F3CC04002914FB02F200EE102AF2
:103DC000F8EE400A75D03F4A9FED3D1AB7EE000A63
:103DD0006BB1DFED3D1A012B01D0022B64D002EE56
:103DE000101A1168F8EE422A81EEA22A21E0334C23
:103DF000283C23689B0612D5344B246801EE901AA8
:103E00001168C4F3C104F8EE612AE34001EE903A70
:103E1000C1F30801F8EE611A81EEA22A0BE001EE6F
:103E2000901ADFED2B2A00BFF8EE611A116882EEBE
:103E3000A12AC1F3080101EE901A1168F8EE611A87
:103E400040EE811A71EE800A62EE200AC1F346212B
:103E500001EE101AB8EE411A31EE001AC0EE811AC6
:103E6000BCEEE11A80ED001A1168C1F3064101EEC3
:103E7000101AB8EE411A31EE001AC0EE811ABCEEEB
:103E8000E11A80ED011A1168C1F3066101EE101A02
:103E9000B8EE411A31EE000A80EE801ABCEEC10A7B
:103EA00080ED020A30BD04E001EE901ADFED092A30
:103EB000BAE70021016041608160F3E728440258BD
:103EC00000000039384402580024744A0090D0039E
:103ED0000024744C001BB74B494930B5484C0B1DAE
:103EE0000A681C3409681D68246802F00303C5F3DE
:103EF0000022C1F30551C4F3CC04002914FB02F2E3
:103F000000EE102AF8EE400A75D03F4A9FED3D1AA8
:103F1000B7EE000A6BB1DFED3D1A012B01D0022B89
:103F200064D002EE101A1168F8EE422A81EEA22A3D
:103F300021E0334C283C23689B0612D5344B24687F
:103F400001EE901A1168C4F3C104F8EE612AE3404F
:103F500001EE903AC1F30801F8EE611A81EEA22A4F
:103F60000BE001EE901ADFED2B2A00BFF8EE611A8C
:103F7000116882EEA12AC1F3080101EE901A1168BE
:103F8000F8EE611A40EE811A71EE800A62EE200AA4
:103F9000C1F3462101EE101AB8EE411A31EE001AB3
:103FA000C0EE811ABCEEE11A80ED001A1168C1F36F
:103FB000064101EE101AB8EE411A31EE001AC0EEB9
:103FC000811ABCEEE11A80ED011A1168C1F3066195
:103FD00001EE101AB8EE411A31EE000A80EE801A96
:103FE000BCEEC10A80ED020A30BD04E001EE901A79
:103FF000DFED092ABAE70021016041608160F3E743
:104000002844025800000039404402580024744AF1
:104010000090D0030024744C001BB74B2DE9FE4FD9
:104020000546DFF800A450F8081B0024FD4FC943E3
:10403000019005F1280026460AF1240A00900801A3
:104040001DD4686E50B1B0F5801F0CD0B0F5001FC4
:104050000ED0B0F5401F1ED001240FE0386840F4A8
:104060000030386017E00198022103F0A5FF03E05B
:104070000098022104F030F804000CD0264628886D
:10408000C043C00523D4A86D05281ED2DFE800F088
:104090000C11161B1B006A6EDAF8001021F4401197
:1040A0001143CAF80010EAE7386840F4003038607D
:1040B00009E00198002103F07FFF03E00098002150
:1040C00004F00AF80446C4B100E00124264628881A
:1040D000DFF85083C04308F12C0840052FD4D5F8F1
:1040E000A400B0F5C00F28D010DCB8B1B0F5001FA7
:1040F00019D0B0F5800F0FD11AE0AA6DDAF80010D0
:1041000021F007011143CAF80010E0E7B0F5000FF5
:1041100013D0B0F5200F10D001240FE0386840F420
:104120000030386009E00198002103F045FF03E00A
:104130000098002103F0D0FF044694B12646288859
:10414000C043000530D4D5F8A800B0F1407F29D095
:1041500011DCC0B1B0F1807F1AD0B0F1007F10D176
:104160001BE0D5F8A420D8F8001021F46001114319
:10417000C8F80010E3E7B0F1806F13D0B0F1A06F82
:1041800010D001240FE0386840F40030386009E0B6
:104190000198002103F010FF03E00098002103F0D4
:1041A0009BFF044694B126462868DFF878B2C043E6
:1041B0000BF1200B80011FD4E86CD8B110280FD070
:1041C000202812D0302815D0012414E0D5F8A820DA
:1041D000D8F8001021F0E0611143C8F80010E3E7BF
:1041E000386840F40030386004E00198022103F0A0
:1041F000E3FE044674B126462888C043C0042BD48D
:10420000E86DB0F5005F20D00DDCA0B1B0F5805FA7
:104210000FD115E0EA6CDBF8001021F030011143FA
:10422000CBF80010E8E7B0F5405F13D0B0F5804F51
:1042300010D001240FE0386840F40030386009E005
:104240000198002103F0B8FE03E00098002103F07C
:1042500043FF04468CB126462888C043800429D4F5
:10426000286EB0F5403F23D010DC08B3B0F5803F96
:1042700014D0B0F5003F0FD115E0EA6DDAF8001068
:1042800021F4E0411143CAF80010E5E7B0F5802FB2
:104290000ED0B0F5A02F0BD001240AE00198012127
:1042A00003F08AFE03E00098012103F015FF0446A5
:1042B00094B126462888C04340042AD4D5F8AC00DF
:1042C000B0F1405F23D010DC08B3B0F1805F14D0B0
:1042D000B0F1005F0FD115E02A6EDAF8001021F47A
:1042E000E0211143CAF80010E4E7B0F1804F0ED08E
:1042F000B0F1A04F0BD001240AE00198012103F096
:104300005BFE03E00098012103F0E6FE044674B171
:1043100026462888C04300041FD4E86ED8B1B0F107
:10432000805F0ED0B0F1005F10D0012414E0D5F80A
:10433000AC20D8F8001021F0E0411143C8F800107B
:10434000E7E7386840F40030386004E00198012164
:1043500003F032FE044674B126462868C043C0010B
:104360001ED4A86CD0B101280ED0022811D0032889
:1043700014D0012413E0EA6EDAF8001021F0405165
:104380001143CAF80010E8E7386840F4003038609C
:1043900004E00198022103F00FFE04466CB12646AA
:1043A0002868C043400255D41F48016841F4807119
:1043B0000160FEF72FFE81460EE0AA6CDBF80010CC
:1043C00021F003011143CBF80010E9E7FEF722FECC
:1043D000A0EB090064283BD813480068C005F5D558
:1043E000BCBBDFF84090B5F8B01009F14409D9F82A
:1043F000000001F4407100F44070884211D0D9F8F7
:104400000010D9F8002021F4407142F48032C9F83C
:104410000020D9F8002022F48032C9F80020C9F821
:10442000001003E02C44025800480258D5F8B000B0
:10443000B0F5807F19D1FEF7EDFD029011E000BFCD
:10444000FEF7E8FD0299411A41F28830814208D90D
:10445000032426462878DFF81494C043C00721D0EF
:104460003CE0D9F800008007EAD5D5F8B010C1F3D8
:1044700001200328FE480DD0016821F47C51016021
:10448000B5F8B020D9F80010C2F30B021143C9F8F7
:104490000010DFE7F74A036802EA111223F47C51A7
:1044A0001143ECE7A86F182816D005DCA0B1082846
:1044B00008D0102804D10AE020280DD028280BD0DD
:1044C00001240AE00198012103F076FD03E0009841
:1044D000012103F001FE044664B126462878C0435A
:1044E00080071ED4686F062819D2DFE800F0160C8A
:1044F00011161616AA6FD9F8001021F038011143D1
:10450000C9F80010EAE70198012103F055FD03E026
:104510000098012103F0E0FD04467CB100E0012495
:1045200026462878C04340071FD4D5F890000628B7
:1045300019D2DFE800F0160C111616166A6FD9F8BA
:10454000001021F007011143C9F80010E9E70198B4
:10455000012103F031FD03E00098012103F0BCFDCF
:104560000446A4B100E0012426462878C043800612
:104570002BD4D5F88C00B0F1405F24D011DC10B3FF
:10458000B0F1805F15D0B0F1005F10D116E0D5F822
:104590009020D8F8001021F007011143C8F800104E
:1045A000E3E7B0F1804F0ED0B0F1A04F0BD0012463
:1045B0000AE00198002103F0FFFC03E000980221CB
:1045C00003F08AFD044694B126462878C04340068D
:1045D0002BD4D5F89800B0F5406F24D011DC10B37F
:1045E000B0F5806F15D0B0F5006F10D116E0D5F89A
:1045F0008C20D9F8001021F0E0411143C9F80010D7
:10460000E3E7B0F5805F0ED0B0F5A05F0BD00124DA
:104610000AE00198002103F0CFFC03E0009802219A
:1046200003F05AFD044694B126462878C04300069C
:104630002BD4D5F89C00B0F5C04F24D011DC10B3BA
:10464000B0F5005F15D0B0F5804F10D116E0D5F869
:104650009820D8F8001021F4E0511143C8F8001058
:10466000E3E7B0F5004F0ED0B0F5204F0BD001249A
:104670000AE00198002103F09FFC03E0009802216A
:1046800003F02AFD044654B126462878C0430007AB
:104690001ED4D5F88000B0F5805F0AD00FE0D5F8C1
:1046A0009C20D8F8001021F460411143C8F8001094
:1046B000EBE70098022103F00FFD00B10126D5F8C9
:1046C0008020D9F8001021F440511143C9F800109E
:1046D0002878C043C00613D4D5F89400B0F5807F85
:1046E00005D10098022103F0F7FC00B10126D5F8AE
:1046F0009420D8F8001021F440711143C8F800103C
:104700002868C043000316D4D5F8A00038B1B0F52E
:10471000803F09D0B0F5003F0BD001240AE001989A
:10472000002103F049FC03E00098022103F0D4FCCF
:1047300004468CB126462868C043400322D4D5F8ED
:104740008400B0F5801F11D0B0F5001F13D0B0F574
:10475000401F15D0012414E0D5F8A020D8F800108F
:1047600021F440311143C8F80010E4E7386840F400
:104770000030386004E00098012103F0ADFC0446ED
:104780005CB126462868C043C0031CD4286D70B1B4
:10479000B0F5803F10D0012414E0D5F88420D9F87A
:1047A000001021F440111143C9F80010EAE73868FD
:1047B00040F40030386004E00198022103F0FCFB73
:1047C0000446DCB126462868C043800005D4009822
:1047D000022103F081FC00B101262868C043800358
:1047E0001BD4E86FB8B1B0F5807F10D0B0F5007F72
:1047F00011D0B0F5407F0ED001240DE02A6DDBF81A
:10480000001021F480311143CBF80010DBE7386849
:1048100040F4003038607CB326462868C043C002AC
:1048200007D42A6FDAF8001021F000411143CAF8CA
:1048300000102868C043800207D4AA6EDAF800107E
:1048400021F080711143CAF800102868C04340006D
:1048500009D40748016821F4004101600168D5F8D6
:10486000B420114301602868C04306E05444025854
:1048700010440258CFFFFF001DE007D46A6DDBF83B
:10488000001021F040511143CBF800102868C043BC
:10489000000208D4D5F88820D9F8001021F440018E
:1048A0001143C9F8001028790024C04300F001002A
:1048B000204309D00EE0EA6FD9F8001021F44071CE
:1048C0001143C9F80010A8E70198002103F074FB18
:1048D00000B106462879C04300F00200204305D10C
:1048E0000198012103F068FB00B106462879C04316
:1048F00000F00400204305D10198022103F05CFB85
:1049000000B106462879C04300F00800204305D1D5
:104910000098002103F0E0FB00B106462879C0436F
:1049200000F01000204305D10098012103F0D4FBD2
:1049300000B106462879C04300F02000044304D1AA
:104940000098022103F0C8FB00B916B10120BDE8B0
:10495000FE8F0020FBE700002DE9F05F04000F460A
:104960007ED0DFF83882D8F8000000F00F00B8429F
:104970000CD2D8F8001021F00F013943C8F800100C
:10498000D8F8000000F00F00B84269D12078844DBB
:1049900040070AD52069296801F07001884204D9CE
:1049A000296821F070010143296020787C4E361D72
:1049B00000070AD56069316801F07001884204D9A6
:1049C000316821F07001014331602078C0060AD5BA
:1049D000A069316801F4E061884204D9316821F4AA
:1049E000E061014331602078DFF8B4B180060BF15B
:1049F000080B0CD5E1695846DBF8002002F0700284
:104A0000914204D9026822F070020A4302602078C1
:104A100080070AD5E068296801F00F01884204D9AF
:104A2000296821F00F01014329602078C0073ED09A
:104A30005B49A2682868183920F470601043286028
:104A40006068022818D0032819D00968012819D0F5
:104A5000490700294ADADFF848A1AAF1080A00E06C
:104A600044E0DAF8002022F007020243CAF80020EE
:104A7000FEF7D0FA814612E009688903E9E7096880
:104A80008901E6E7C905E4E7FEF7C4FAA0EB0901EE
:104A900041F28830814202D90320BDE8F09F61686D
:104AA000DAF8000000F03800B0EBC10FECD120784C
:104AB00080070AD5E068296801F00F01884204D216
:104AC000296821F00F0101432960D8F80010404601
:104AD00001F00F01B9420BD9016821F00F013943F0
:104AE0000160006800F00F00B84201D00120D4E757
:104AF000207840070AD52069296801F070018842B2
:104B000004D2296821F07001014329602078000750
:104B10000AD56069316801F07001884204D23168B9
:104B200021F07001014331602078C0060AD5A069E8
:104B3000316801F4E061884204D2316821F4E06117
:104B400001433160207880060CD5E1695846DBF8D6
:104B5000002002F07002914204D2026822F070023A
:104B60000A43026000F09AF80E492A682B68C2F3E3
:104B7000032203F00F038A5CC95C02F01F0201F0FC
:104B80001F01D040084A20FA01F11160074908606E
:104B900007480068BDE8F05FFEF778BA00200052D1
:104BA0001844025818480108180000241400002472
:104BB0000800002470B5144C3F220260124A246899
:104BC0000832131D114D04F00704446016681C1DC3
:104BD00006F470668660166806F00F06C6601268F6
:104BE00002F0700202611A6802F0700242611A68F3
:104BF00002F4E0628261226802F07002C2612868F9
:104C000000F00F00086070BD1044025800200052F0
:104C100030B500F043F80B4A0B490C4B156814688B
:104C2000C5F3032204F00F048A5C095D02F01F0241
:104C300001F01F01D040064A20FA01F1196010600E
:104C4000084630BD184402581848010818000024CE
:104C50001400002400B5FFF7DBFF05490968054A89
:104C6000C1F30211515C01F01F01C84000BD0000FA
:104C70001C4402581848010800B5FFF7C9FF054950
:104C80000968054AC1F30221515C01F01F01C840C7
:104C900000BD00001C44025818480108454970B581
:104CA00045480968434B103B11F0380208D0011108
:104CB000082A03D0102A0BD0182A0BD0084670BD42
:104CC00019688906FBD51968C1F3C101C84070BDD8
:104CD0003A4870BD3749374D18310C1D24350A68E4
:104CE000096826682D6802F0030406F00102C1F38A
:104CF0000511C5F3CC0515FB02F200EE102AB8EE43
:104D0000400AE9B32F4ADFED2E0AB7EE001A6CB164
:104D1000DFED2D1A012C01D0022C43D002EE101A27
:104D20001068F8EE422A81EEA22A1EE01C68A40652
:104D300011D51B6801EE901A1168C3F3C103F8EE98
:104D4000612AD84001EE900AC1F30800F8EE611A1A
:104D500081EEA22A0BE001EE901ADFED1C2A00BFC3
:104D6000F8EE611A106882EEA12AC0F3080001EE85
:104D7000900AF8EE611A40EE201A31EE810A00E046
:104D800015E022EE000A1068C0F34620401C00EE39
:104D9000900AF8EE600A80EE201ABCEEC10A10EE0E
:104DA000100A70BD01EE901ADFED092AD8E7002045
:104DB00070BD0000104402580090D00300366E0110
:104DC00000000039304402580024744A0024744C16
:104DD000001BB74B2DE9F05F04007DD0FF4F20781A
:104DE000FE4D1837DFF8F483103DC00748D0D8F8DF
:104DF0000000396800F03800102815D0182803D1B9
:104E000001F0030002280FD06068B0F5803F12D097
:104E100010B1B0F5A02F18D0286820F48030286099
:104E2000286820F4802009E02868800328D560687D
:104E30000028D2D024E0286840F4803028606068E0
:104E400088B1FEF7E7F8064609E0286840F48020BC
:104E50002860F0E7FEF7DEF8801B64287ED828681B
:104E60008003F7D50CE0FEF7D5F8064605E000BF55
:104E7000FEF7D0F8801B6428F0D828688003F7D4A8
:104E80002078800756D5D8F80000DFF850933968AD
:104E900010F03800A9F10C090ED0182801D18807AC
:104EA0000AD0E068A8B3296821F0190101432960FC
:104EB000FEF7B0F8064628E02868400702D5E0680B
:104EC00000288AD0E168286820F01900084328608B
:104ED000FEF7A0F8064606E0D2E000BFFEF79AF81B
:104EE000801B0228BAD828684007F7D5217CD9F85A
:104EF000002022F0FE4242EA0161C9F8001019E0E8
:104F0000FEF788F8801B0228A8D828684007F7D544
:104F1000ECE7FFE7286820F001002860FEF77AF848
:104F2000064604E0FEF776F8801B022896D828682B
:104F30004007F7D42078C00646D5D8F80000DFF83F
:104F40009C92396800F03800A9F10409082812D0B1
:104F5000182805D101F00300012800E0CEE00AD0B6
:104F6000E0690028286820D040F080002860FEF723
:104F700051F8064615E02868C00502D5E06980288A
:104F80007ED194F82010D9F8002022F07C5242EA19
:104F90000161C9F8001017E0FEF73CF8801B0228F9
:104FA000A0D82868C005F7D5EBE720F0800028607E
:104FB000FEF730F8064604E0FEF72CF8801B0228C6
:104FC00090D82868C005F7D42078000729D58348F1
:104FD0006169643000298146016811D041F0010106
:104FE0000160FEF717F8064605E000BFFEF712F86D
:104FF000801B022888D8D9F800008007F6D510E079
:1050000021F001010160FEF705F8064605E000BF4A
:10501000FEF700F8801B022870D8D9F8000080073E
:10502000F6D42078800623D5A0690028286810D0FF
:1050300040F480502860FDF7EDFF064605E000BF14
:10504000FDF7E8FF801B022858D828688004F7D5B0
:105050000EE020F480502860FDF7DCFF064604E0F7
:10506000FDF7D8FF801B022848D828688004F7D4B1
:105070002078400751D5DFF86891D9F8001000E09A
:1050800015E141F48071C9F80010FDF7C3FF064631
:1050900005E000BFFDF7BEFF801B64282ED8D9F8BD
:1050A0000000C005F6D54D4EA068603601280AD034
:1050B00008B1052813D0306820F001003060306856
:1050C00020F0040002E0306840F001003060A06889
:1050D00041F2883A98B1FDF79DFF81460AE03068B9
:1050E00040F004003060EEE7FDF794FFA0EB09010B
:1050F000514503D830688007F6D50EE072E0FDF721
:1051000089FF814606E000BFFDF784FFA0EB09019F
:10511000514567D830688007F6D4606A00287CD093
:10512000DFF8B8A0D8F800100AF1200A4FF6F87B93
:105130000AF10408C1F3C2010329AAF104096DD0E0
:105140000228286820F08070286003D0FDF762FFF5
:10515000044681E0FDF75EFF064604E0FDF75AFFD6
:10516000801B022875D828688001F7D4E26A40F2D3
:10517000F331386854F8283F884340EA0210184356
:105180003860217B4FF4FE0C22894FF0FE47208AC5
:105190004902267D521E401EA1F5007189B2C2F35C
:1051A00008021143761E0CEA00400143484607EA14
:1051B00006621143CAF80010D9F8001021F001016D
:1051C000C9F80010D8F80030266A23EA0B0343EA36
:1051D000C601C8F80010D9F8001004E010440258C5
:1051E0000048025835E0A26921F00C011143C9F8CA
:1051F00000100168E26921F00201114301600168B9
:1052000041F480310160016841F4003101600168BE
:1052100041F480210160016801E06CE020E041F090
:1052200001010160286840F080702860FDF7F2FEFF
:10523000044604E0FDF7EEFE001B022809D82868AA
:105240008001F7D557E000BFFDF7E4FE001B022800
:1052500002D90320BDE8F09F28688001F4D44AE019
:1052600039680128DAF8000021D0A26A01F00303AE
:1052700093421CD1E26AC1F305118A4217D1216B16
:10528000C0F30802491E8A4211D1616BC0F3462265
:10529000491E91420BD1A16BC0F30642491E9142B7
:1052A00005D1E16BC0F30660491E814201D00120A7
:1052B000D0E7A16C4646D8F80000C0F3CC0081428C
:1052C00019D0D9F800004D4620F00100C9F80000BF
:1052D000FDF7A0FE4FEA0007FDF79CFEB842FBD0A9
:1052E000A26C306820EA0B0040EAC20030602868F7
:1052F00040F0010028600020ACE700002DE9F047F5
:10530000040029D0594A4FF000092068584B594DE4
:105310009042C4F8289006D0984204D0A84202D007
:10532000E1680F2918D8E1684FF0010AE76B0831EE
:10533000C9080AEB57167143904205D0984203D032
:10534000A84201D0082907D8904203D0984201D042
:10535000A84204D1102902D90120BDE8F087D4F871
:10536000840020B92046C4F8809000F085F802201F
:10537000C4F884002068016821F001010160206800
:10538000A1698268B1F1806F02F4F81110D16268EE
:10539000B2F5800F01D01AB10AE0A26B22B107E08A
:1053A000A26BB2F1805F03D1026842F480520260C6
:1053B0006068400209D5E068072806D32068236D9D
:1053C000026822F480721A4303E02068026822F423
:1053D00080720260A66AE069E26B25683043E36888
:1053E0000A4310431843A860D4E90D02D4E90581AB
:1053F000636A25691843D4F820C00A43266810431D
:105400002843A56DD4E90172D4E9123140EA0800BD
:1054100040EA0C0038430843104318432843F06027
:10542000606868B92068816821F4C05141F4006166
:1054300081602068816821F4C06141F480618160ED
:105440002068016D21F0010101656068400206D508
:105450002068626DC16821F000411143C160C4F849
:105460008890C4F884A0002077E700000030014055
:1054700000380040003C00402DE9F041B4B0074640
:1054800014212EA8FBF761F9B8216846FBF75DF9F6
:105490005949022538680024564E4FF003088842C7
:1054A00079D1811417940020CDE900106846FEF7E9
:1054B000B5FD08B1FBF7AFFF4E480830016841F475
:1054C00080410160006800F480403390306840F013
:1054D00004003060306800F004003390306840F021
:1054E000020030603068062146464FF0050800F0A3
:1054F0000200CDE92E15CDE93046CDE932803F4896
:105500002EA9FDF76FFC4FF400513D4830AACDE9BC
:105510002E152EA982E85001FDF764FC394E4FF498
:10552000806839492722304631604FF44031C6E95E
:105530000124C6E903487461B461C6E90741746295
:10554000FCF774FB08B1FBF766FF2E4D40232E4994
:1055500028227C35FE671831F76302C5D902281F5F
:1055600085E81C012C616C61C5E906412C622D1F88
:10557000FCF75CFB08B1FBF74EFFBD67002205217D
:10558000EF632420FDF7E4FD2420FDF7D3FD34B0C4
:10559000BDE8F081FFE71D498842F8D100214FF4B2
:1055A00080404FF0A0422B92CDE900016846FEF703
:1055B00035FD08B1FBF72FFF0E481430016841F0AC
:1055C00020010160006800F020003390306840F056
:1055D000010030603068A021082200F00100CDE910
:1055E0002E15CDE93048CDE9322009482EA9FDF726
:1055F000F9FBCCE7E04402580038004000080258AC
:105600000004025810140024100002400014005836
:10561000000002582DE9F84F0446006899461746E5
:1056200000F1200B8A46FDF7F5FC0646D4F884000D
:10563000012837D1BAF1000F7DD0002FFCD0D4F86B
:10564000800001282ED00025A26803214FF0010818
:10565000C4E92081C4F88850C4F85CA06566A4F849
:105660006850656725672C34B2F5C02FA786E7869A
:10567000E58754F82C0D18D0C16821F4C02141F4FD
:105680000031C160206841686FF30F013943416008
:105690002068016841F0010101606068B0F5800F89
:1056A00008D00CE00220BDE8F88F016841F40061E9
:1056B0000160E7E72068016841F400710160E0687B
:1056C0000F281CD820E02068416989070BD5E16DBF
:1056D00009680162E06D001DE065B4F86200401EDB
:1056E000A4F862000BE0FDF795FC811B494503D34C
:1056F000B9F1FF3F03D09CE0B9F1000F31D0B4F80D
:1057000062000028DFD178E007282ED871E02068F9
:10571000416989071DD5B4F8621001290CD9E16BE4
:1057200051B1E16D09680162E06D001DE065B4F8FA
:105730006200801E0AE07AE0E06D0188ABF800109C
:10574000E06D801CE065B4F86200401EA4F86200C1
:105750000BE0FDF75FFC811B494503D3B9F1FF3F27
:1057600003D066E0B9F1000F63D0B4F862000028FE
:10577000CDD142E02068416989072ED5B4F8621086
:1057800003290CD9E16B402909D9E16D096801624F
:10579000E06D001DE065B4F86200001F1AE0B4F887
:1057A000621001290CD9E16B51B1E06D0188ABF8B1
:1057B0000010E06D801CE065B4F86200801E09E016
:1057C000E16D097880F82010E06D401CE065B4F8C8
:1057D0006200401EA4F862000BE0FDF71BFC811B79
:1057E000494503D3B9F1FF3F03D022E0B9F1000FDF
:1057F0001FD0B4F862000028BCD100224B4608211B
:105800002046009602F068FD28B1D4F8880040F0E8
:105810002000C4F88800204602F0FFFCC4F8848011
:10582000D4F88800C4F8805000283FF43CAF012031
:1058300039E7204602F0F1FCD4F88810C4F8805013
:1058400041F48071C4F88810C4F8848003202AE7EA
:105850007047704770470000F0B5C26B012A3DD019
:1058600001241F4E0222C0E90F4202681D4D5368F9
:10587000B242D2F808C001D0AA4203D14F6823F443
:1058800070033B430F6823F070031F4357600268A7
:10589000B24219D0B2F1804F16D0134B9A4213D0B6
:1058A000124B9A4210D0124B9A420DD0AA420BD002
:1058B000104B9A4208D0104B9A4205D00F4B9A4297
:1058C00002D00F4B9A4204D189682CF0800319430F
:1058D000916000210464C1630846F0BD0220F0BD60
:1058E00000000140000401400004004000080040A6
:1058F000000C0040001800400040014000E0004063
:1059000000E4004010B5040002D0206C10B106E0A5
:10591000012010BD0020E063204600F015F80220B1
:1059200020642068211D02F0D9FD0120E06660643A
:10593000A064E06420656065A065E065206660663F
:10594000A0662064002010BD08B500681549884293
:105950000FD11548016841F0100101600068002274
:10596000052100F0100000903620FDF7F1FB3620F5
:1059700012E00E49884213D10B48001D016841F026
:105980000071016000680022052100F000700090A5
:10599000A220FDF7DDFBA220BDE80840FDF7CABB51
:1059A00008BD000000100040E844025800E4004038
:1059B000016C012901D0012070471A4A02210164BB
:1059C0000168CB6843F00103CB60006890421AD0B5
:1059D000B0F1804F17D01449884214D0134988423F
:1059E00011D0134988420ED0124988420BD0124977
:1059F000884208D01149884205D01149884202D016
:105A00001049884207D181680F4A1140062906D003
:105A1000B1F5803F03D0016841F001010160002031
:105A200070470000000001400004004000080040F2
:105A3000000C0040000401400018004000400140FC
:105A400000E0004000E400400700010070B504469B
:105A5000C06B0025012812D00126384B0220C4E972
:105A60000F6022689068184020F47F4090600868BA
:105A700070282DD010DC10F00F0F03D022E04FF073
:105A8000020070BD4FEA2012072A1BD2DFE802F0A5
:105A90005151515149373F00B0F1101F49D009DC35
:105AA000B0F5805F0FD0B0F5005F1CD0B0F5801F5F
:105AB00008D13EE0A0F5801120393AD0102938D025
:105AC000202936D0012526640020E063284670BDD9
:105AD0004A682068D1E9021302F07DFD20688168E0
