:100000006F00900D00000000F2010000F4010000FC
:1000100000000000000000000000000000000000E0
:1000200000000000000000000000000000000000D0
:10003000D608000000000000D60800000000000004
:10004000D6080000D6080000D6080000D608000038
:10005000D6080000D6080000D6080000D608000028
:10006000D6080000D6080000D6080000D608000018
:10007000D6080000D6080000D6080000D608000008
:1000800004020000D6080000D6080000D6080000D0
:10009000D6080000D6080000D608000000000000C6
:1000A000511126C022C206C4828282441244A24058
:1000B000310182802A86014593F6150091C232955E
:1000C00085810606F5F9828000000000634E050276
:1000D00063C305042E86AA857D5515C285466378BF
:1000E000B6006356C00006068606E36CB6FE014500
:1000F00063E4C500918D558D85820582F5FA828075
:100100008682C93F2E8582823305A04063D70500D1
:10011000B305B040C1B7B305B0408682653F330533
:10012000A0408282868263C70500634905005D376F
:100130002E858282B305B040E35B05FE3305A04007
:10014000513F3305B040828200003D432A876373EC
:10015000C3029377F700BDEFADE5937606FF3D8AC6
:10016000BA960CC34CC30CC74CC74107E36BD7FE10
:1001700011E28280B306C3408A0697020000969679
:100180006780A6002307B700A306B7002306B700C1
:10019000A305B7002305B700A304B7002304B700E5
:1001A000A303B7002303B700A302B7002302B700DD
:1001B000A301B7002301B700A300B7002300B700D5
:1001C000828093F5F50F93968500D58D9396050162
:1001D000D58D61B793962700970200009696868288
:1001E000E78086FA9680C1171D8F3E96E374C3F8A8
:1001F000A5B701A0B707EFBE37E700E09387070870
:100200003CC701A0711122C03744014093055052F0
:1002100013050480EF00702B01C913050480EF0063
:10022000B0291375F50F9522024411017300203097
:10023000EFF21FE7374401401304048093050004E4
:100240002285EF00F0277DD98DB5EFF27FE53744A9
:100250000140AA84930704803E8593050008EF00BF
:100260003026B7470140938707807DD5A6851305C3
:100270000480EF00F02315BDEFF29FE22A8403050E
:10028000040011C51375F50F0504C1376DF84D371E
:1002900029BDEFF2FFE071112AC01305A00AB28454
:1002A0002E846537130550054D3782473E85713FD3
:1002B0002685613FA29408200504413FE39D84FE0A
:1002C0001305500559371305A00A41379537110119
:1002D000E9BBEFF2FFDCB707002083A787037111AA
:1002E0004880DC808A85F9470D46130510085C813B
:1002F0004D3711015DBBEFF2BFDA056471110147A3
:100300001304C4DAB70400209384C40388209945F9
:100310003AC03A95013D931715003E952295024744
:10032000342110210C311375F70F29290247A947F1
:100330000507E319F7FC61219C2085079CA01101AA
:10034000ADB3EFF2FFD5B7070020B706002003D703
:10035000070183A6860383A707011301C1FD54800B
:100360007881A94613D7070113056100E183F94598
:10037000D4805882DC8221298A8513064002130525
:100380002008013F130141020DB3138701891C238B
:1003900083C61189850793F7F7076388D700102371
:1003A00093860181B29688A21CA38280EFF25FCF70
:1003B000130181FB794681452810413B054599256C
:1003C000D92CEF0050148545116502CC02CE02D025
:1003D00002D202C202C4EF00A074854513051002C8
:1003E00002C602C802CAEF00A073930700043714C4
:1003F00001407C868D47130504403EC86C00914740
:100400003ECA592393070002130504407C866C0002
:10041000E1473ECA952BF167374401409387072097
:10042000130504803ECC2C08B7070C003ED002CE4A
:1004300023120102EF004076054693055052130542
:100440000480EF009003930700127C8248008547E8
:100450003EC423030100552B854513050480EF009E
:100460007000E52E37150000130585D8313501449D
:1004700059358144F935B747014013850780930505
:100480000002EF00F003B747014031E19387018993
:100490009386118990239C2293F7F70F6388C70CEA
:1004A000902293870181B2979C23902293F7F70FB4
:1004B00005061376F60790A2914663ED8608056659
:1004C00093162400130646D7B2969442828613856B
:1004D0000780EF00607E9377F50F3E853EC0B53311
:1004E00082473E855D3541BF13075005638EE706A1
:1004F000938767F513B4170051BFB80093861400B3
:10050000BA942380F4FEF54793F4F60FE3F097F8DE
:100510000D44ADBF930650051144E389D7F6938788
:1005200067F513B41700814495B71307A00A6395C4
:10053000E702B70700200547F945281023ACE7027A
:10054000392CB52C37150000130585D935330145F5
:100550004933C53B0144C1BF37150000130505DA17
:10056000213B0545BD33FDB7094475BF0545EF0087
:10057000C07C1386C1801442B705002083A5850383
:10058000850614C29386818090429387C1800506B8
:1005900090C291E99305300663F7C50023A00600D9
:1005A000993B9387C1809043CD46E3F6C6EC23A0E8
:1005B0000700413BC9B5EFF2BFAE371402401C4003
:1005C0003707FFF8414593E717001CC05C40F98FDF
:1005D0005CC01C403707F7FE7D17F98F1CC01C401C
:1005E0003707FCFF7D17F98F1CC05C4041777D17F2
:1005F000F98F5CC0B7079F001CC48D291C4C93E782
:1006000007021CCCB717014003A707409386074099
:100610001377F7F023A0E74003A707401367070805
:1006200023A0E74089479CCAB7F7FF1F03C5477D52
:100630009307F00F6304F5007D890D29B727024069
:100640009843C176FD16719B98C3984313671700B2
:1006500098C3B7170240D843D8C3D843758FD8C3BF
:10066000D843B7060001D8C39843558F98C3984321
:1006700093166700E3DD06FED843B7160240719B70
:10068000D8C3D84313672700D8C32147DC42B18BB6
:10069000E39EE7FE19BCEFF2BFA0371702405C43B0
:1006A000370400209146B18B130404016385D70001
:1006B000A1466380D704B7376E01938707601CC0DB
:1006C000B7160240DC420840918313F7F700B707E2
:1006D000002093870700BA978C23DC4293F5F50F2F
:1006E00093F707083357B50099E3ED322A8718C00E
:1006F0006DBA5C43B777DC02938707C0C9B78147FF
:1007000021461317850161879306C00F63440700D4
:100710009306000C3387F500060514A385071375AF
:10072000F50FE390C7FE8280938741891387E70125
:1007300023800700A3800700238107008D07E3992A
:10074000E7FE8280A54763EBA70093171500AA97E1
:10075000138541893E950CB110A134A182801DC53D
:10076000F54763F5B702938741891307E501142123
:100770000D058D07238FD7FE8346E5FFA38ED7FE99
:100780008346F5FFA38FD7FEE313E5FE82801DC5E8
:10079000F54763F5B702938741891307E501943361
:1007A0000D058D07A30ED5FE83C6D7FF230FD5FEFB
:1007B00083C6F7FFA30FD5FEE313E5FE8280EFF2B9
:1007C0003F8E711181471384418B13070004B306D8
:1007D000F400238006008507E39BE7FE93844189AC
:1007E000930704048820BE853EC0113F82478830AD
:1007F0008D04938587002137824703C5F4FF9385D5
:100800000701F53D82471387419EE107E39CE7FC22
:100810009307001313070017B306F40023800600A4
:100820008507E39BE7FE81448945373501408526EE
:1008300065DDB30794008C23373501408504B1266C
:1008400093070017E392F4FE930500083735014043
:100850003D2E7DF911016FF05F85EFF27F8431113C
:100860008545414502C002C202C45D2C93070006C3
:100870007C808D473EC28A85E147371501403EC4E2
:100880002122930700087C808A8591473715014013
:100890003EC4DD288545056502C002C202C402C609
:1008A00023180100B52CB7C704013EC0B7070002EA
:1008B0003EC4C1473EC68A859D4737350140FC800E
:1008C00002C2B52C8545373501405D24B13DC53D9B
:1008D00051016FF08FFD01A097010020938101F677
:1008E000138181FC1305000A97F5FF1F938585711D
:1008F00017F6FF1F1306067163FAC5008322050071
:1009000023A0550011059105E3EAC5FE1705000077
:100910001305454B97F5FF1F9385C56E17F6FF1F0F
:100920001306C67163FAC5008322050023A0550093
:1009300011059105E3EAC5FE17F5FF1F13050570C4
:100940009385C1A26377B500232005001105E36DEF
:10095000B5FEB722000093820288739002308D4268
:100960007390428097F2FFFF9382C26993E2320054
:1009700073905230EFF03FC497020000938242A37D
:100980007390123473002030944593F7060193F26C
:10099000F60081C7DC41B3E2F20083D3050093F790
:1009A000F30FA5C303230500611122C226C08147AE
:1009B000130480029304800405473316F70033F7CD
:1009C000C3006312E602939527003D473317B70033
:1009D0001347F7FF33736700B395B20033E3650045
:1009E000639D860050C985072147E397E7FC1244C1
:1009F00023206500824421018280E39696FE10C97F
:100A0000DDB7828023A2A1A2828083A641A285476E
:100A100018216390F6021C31639CD7023C219A078F
:100A200093E707F8B7E600E093F7F70FBA9623804D
:100A3000F6408546935757003397E600544189CED8
:100A4000938707048A07B7E600E0B69798C38280C9
:100A5000EDF33C219A07F9B793870706B7E600E064
:100A60008A07B69798C30F1000008280371702409C
:100A70001C430E0593F777F05D8D08C38280EFF27B
:100A80002FE2371702405C4391462A84B18B63857D
:100A9000D700A1466380D708B7376E0193870760F8
:100AA0001CC0B7160240DC42918313F7F700B7076A
:100AB000002093878702BA978C23DC42184093F575
:100AC000F50F93F707083355B70081E73A85EFF044
:100AD0006FE048C008C448C4B7170240DC438D46E5
:100AE000AD83FD8B13D737008A07F18BD98F13F6AF
:100AF000370113F7370063F4C600138747FFB707C2
:100B0000002093874701BA978C23EFF0AFDC08C829
:100B10006FF0AFD95C43B777DC02938707C049B762
:100B200099C5371702401C4F5D8D08CF8280B717DB
:100B30000240984F1345F5FF798D88CF82801A21A6
:100B40008D6793870704B6217D8F9E21D58FD6218F
:100B5000D58FF621D58F9625D58FB625D58FD6255D
:100B6000D58FF625D58FD98F1EA19E291EA98280EB
:100B70001E2189C593E707041EA18280C207C18395
:100B800093F7F7FBC207C183C5BF4EA582800A2534
:100B90006D8D3335A0008280EFF28FD01629F57766
:100BA000FD17F58FF621DA252111D58F1EA95625BF
:100BB000FD779387379FF58FD6212A842EC0D58F56
:100BC0009625D58FB625D58F5EA55E29C207C18330
:100BD00093F7F7CF5D8F5AA948005535B7470140C5
:100BE0009387078082456312F406C2475A241395FF
:100BF00017003E9542070E0541873E958C4163588C
:100C000007048605EFF00FCD930540062AC0EFF0EC
:100C10006FCC824793144500930540063E85EFF064
:100C20002FCE5E24C207C18763D507020E05930548
:100C3000400613052503EFF0EFC91D89C98CC204D6
:100C4000C18006A461016FF04FC6B24745B78A055F
:100C500055BF12059305400613052503EFF08FC716
:100C60003D89E9BF91C55E250967D98F5EA5828060
:100C70005A25F977FD17F98FD5BF13F7F50F85477B
:100C80001583B395B7006319F7009307C500984320
:100C900001CED98D8CC38280894693074501E31824
:100CA000D7FE93070501E5B793C5F5FFF98DDDB7CD
:100CB00093F5F51F4EA182804A211375F51F82809E
:100CC0000A216D8D3335A000828013F7F50F85461C
:100CD0001583B397B6006311D7025A25F98F1A21ED
:100CE00001454207418381CB0545A181B315B5007C
:100CF0006D8F3335E000828089466314D7001A294E
:100D0000F1BF5A29E1BFEFF2AFB9B707002003A541
:100D10000701B7157A0093850520EFF0AFBB137577
:100D2000F50F2385A1A293175500898F8A073E9559
:100D30000E052394A1A26FF04FB7EFF26FB637F410
:100D400000E05C40AA85F99B5CC003D581A2EFF06E
:100D50006FB608C8232404001C4093E717001CC08A
:100D6000B7F700E0D843058B75DF9843799B98C3AC
:100D70006FF0AFB3F0040000E8040000FA040000D4
:100D8000140500002A0500006C696768742072650C
:100D90006164790D0A00000052585F4F4B0D0A0044
:100DA00052585F4552520D0A0000000000300030DA
:100DB00030000030000030300000303000300000E3
:100DC00001020304050607080102030405060708DB
:100DD000006CDC020204060804080C10081018203D
:100DE00010203040204060800102030405060708FF
:080DF0000102030405060708D7
:00000001FF
